{"abi":[{"type":"constructor","inputs":[{"name":"_agent","type":"address","internalType":"address"},{"name":"_sardis","type":"address","internalType":"address"},{"name":"_recoveryAddress","type":"address","internalType":"address"},{"name":"_limitPerTx","type":"uint256","internalType":"uint256"},{"name":"_dailyLimit","type":"uint256","internalType":"uint256"}],"stateMutability":"nonpayable"},{"type":"receive","stateMutability":"payable"},{"type":"function","name":"agent","inputs":[],"outputs":[{"name":"","type":"address","internalType":"address"}],"stateMutability":"view"},{"type":"function","name":"allowMerchant","inputs":[{"name":"merchant","type":"address","internalType":"address"}],"outputs":[],"stateMutability":"nonpayable"},{"type":"function","name":"allowedMerchants","inputs":[{"name":"","type":"address","internalType":"address"}],"outputs":[{"name":"","type":"bool","internalType":"bool"}],"stateMutability":"view"},{"type":"function","name":"canPay","inputs":[{"name":"to","type":"address","internalType":"address"},{"name":"amount","type":"uint256","internalType":"uint256"}],"outputs":[{"name":"allowed","type":"bool","internalType":"bool"},{"name":"reason","type":"string","internalType":"string"}],"stateMutability":"view"},{"type":"function","name":"captureHold","inputs":[{"name":"holdId","type":"bytes32","internalType":"bytes32"},{"name":"captureAmount","type":"uint256","internalType":"uint256"}],"outputs":[],"stateMutability":"nonpayable"},{"type":"function","name":"createHold","inputs":[{"name":"merchant","type":"address","internalType":"address"},{"name":"token","type":"address","internalType":"address"},{"name":"amount","type":"uint256","internalType":"uint256"},{"name":"duration","type":"uint256","internalType":"uint256"}],"outputs":[{"name":"","type":"bytes32","internalType":"bytes32"}],"stateMutability":"nonpayable"},{"type":"function","name":"dailyLimit","inputs":[],"outputs":[{"name":"","type":"uint256","internalType":"uint256"}],"stateMutability":"view"},{"type":"function","name":"deniedMerchants","inputs":[{"name":"","type":"address","internalType":"address"}],"outputs":[{"name":"","type":"bool","internalType":"bool"}],"stateMutability":"view"},{"type":"function","name":"denyMerchant","inputs":[{"name":"merchant","type":"address","internalType":"address"}],"outputs":[],"stateMutability":"nonpayable"},{"type":"function","name":"emergencyWithdraw","inputs":[{"name":"token","type":"address","internalType":"address"}],"outputs":[],"stateMutability":"nonpayable"},{"type":"function","name":"getAvailableBalance","inputs":[{"name":"token","type":"address","internalType":"address"}],"outputs":[{"name":"","type":"uint256","internalType":"uint256"}],"stateMutability":"view"},{"type":"function","name":"getBalance","inputs":[{"name":"token","type":"address","internalType":"address"}],"outputs":[{"name":"","type":"uint256","internalType":"uint256"}],"stateMutability":"view"},{"type":"function","name":"getRemainingDailyLimit","inputs":[],"outputs":[{"name":"","type":"uint256","internalType":"uint256"}],"stateMutability":"view"},{"type":"function","name":"holds","inputs":[{"name":"","type":"bytes32","internalType":"bytes32"}],"outputs":[{"name":"merchant","type":"address","internalType":"address"},{"name":"token","type":"address","internalType":"address"},{"name":"amount","type":"uint256","internalType":"uint256"},{"name":"capturedAmount","type":"uint256","internalType":"uint256"},{"name":"createdAt","type":"uint256","internalType":"uint256"},{"name":"expiresAt","type":"uint256","internalType":"uint256"},{"name":"captured","type":"bool","internalType":"bool"},{"name":"voided","type":"bool","internalType":"bool"}],"stateMutability":"view"},{"type":"function","name":"lastResetDay","inputs":[],"outputs":[{"name":"","type":"uint256","internalType":"uint256"}],"stateMutability":"view"},{"type":"function","name":"limitPerTx","inputs":[],"outputs":[{"name":"","type":"uint256","internalType":"uint256"}],"stateMutability":"view"},{"type":"function","name":"nonce","inputs":[],"outputs":[{"name":"","type":"uint256","internalType":"uint256"}],"stateMutability":"view"},{"type":"function","name":"pause","inputs":[],"outputs":[],"stateMutability":"nonpayable"},{"type":"function","name":"paused","inputs":[],"outputs":[{"name":"","type":"bool","internalType":"bool"}],"stateMutability":"view"},{"type":"function","name":"pay","inputs":[{"name":"token","type":"address","internalType":"address"},{"name":"to","type":"address","internalType":"address"},{"name":"amount","type":"uint256","internalType":"uint256"},{"name":"purpose","type":"string","internalType":"string"}],"outputs":[{"name":"","type":"bytes32","internalType":"bytes32"}],"stateMutability":"nonpayable"},{"type":"function","name":"payWithCoSign","inputs":[{"name":"token","type":"address","internalType":"address"},{"name":"to","type":"address","internalType":"address"},{"name":"amount","type":"uint256","internalType":"uint256"},{"name":"purpose","type":"string","internalType":"string"},{"name":"deadline","type":"uint256","internalType":"uint256"},{"name":"agentSignature","type":"bytes","internalType":"bytes"}],"outputs":[{"name":"","type":"bytes32","internalType":"bytes32"}],"stateMutability":"nonpayable"},{"type":"function","name":"recoveryAddress","inputs":[],"outputs":[{"name":"","type":"address","internalType":"address"}],"stateMutability":"view"},{"type":"function","name":"removeMerchant","inputs":[{"name":"merchant","type":"address","internalType":"address"}],"outputs":[],"stateMutability":"nonpayable"},{"type":"function","name":"sardis","inputs":[],"outputs":[{"name":"","type":"address","internalType":"address"}],"stateMutability":"view"},{"type":"function","name":"setAllowlistMode","inputs":[{"name":"_useAllowlist","type":"bool","internalType":"bool"}],"outputs":[],"stateMutability":"nonpayable"},{"type":"function","name":"setLimits","inputs":[{"name":"_limitPerTx","type":"uint256","internalType":"uint256"},{"name":"_dailyLimit","type":"uint256","internalType":"uint256"}],"outputs":[],"stateMutability":"nonpayable"},{"type":"function","name":"setRecoveryAddress","inputs":[{"name":"_recoveryAddress","type":"address","internalType":"address"}],"outputs":[],"stateMutability":"nonpayable"},{"type":"function","name":"spentToday","inputs":[],"outputs":[{"name":"","type":"uint256","internalType":"uint256"}],"stateMutability":"view"},{"type":"function","name":"totalHeldAmount","inputs":[{"name":"","type":"address","internalType":"address"}],"outputs":[{"name":"","type":"uint256","internalType":"uint256"}],"stateMutability":"view"},{"type":"function","name":"transferSardis","inputs":[{"name":"_newSardis","type":"address","internalType":"address"}],"outputs":[],"stateMutability":"nonpayable"},{"type":"function","name":"unpause","inputs":[],"outputs":[],"stateMutability":"nonpayable"},{"type":"function","name":"useAllowlist","inputs":[],"outputs":[{"name":"","type":"bool","internalType":"bool"}],"stateMutability":"view"},{"type":"function","name":"usedSignatures","inputs":[{"name":"","type":"bytes32","internalType":"bytes32"}],"outputs":[{"name":"","type":"bool","internalType":"bool"}],"stateMutability":"view"},{"type":"function","name":"voidHold","inputs":[{"name":"holdId","type":"bytes32","internalType":"bytes32"}],"outputs":[],"stateMutability":"nonpayable"},{"type":"event","name":"HoldCaptured","inputs":[{"name":"holdId","type":"bytes32","indexed":true,"internalType":"bytes32"},{"name":"capturedAmount","type":"uint256","indexed":false,"internalType":"uint256"}],"anonymous":false},{"type":"event","name":"HoldCreated","inputs":[{"name":"holdId","type":"bytes32","indexed":true,"internalType":"bytes32"},{"name":"merchant","type":"address","indexed":true,"internalType":"address"},{"name":"token","type":"address","indexed":true,"internalType":"address"},{"name":"amount","type":"uint256","indexed":false,"internalType":"uint256"},{"name":"expiresAt","type":"uint256","indexed":false,"internalType":"uint256"}],"anonymous":false},{"type":"event","name":"HoldVoided","inputs":[{"name":"holdId","type":"bytes32","indexed":true,"internalType":"bytes32"}],"anonymous":false},{"type":"event","name":"LimitsUpdated","inputs":[{"name":"limitPerTx","type":"uint256","indexed":false,"internalType":"uint256"},{"name":"dailyLimit","type":"uint256","indexed":false,"internalType":"uint256"}],"anonymous":false},{"type":"event","name":"MerchantAllowed","inputs":[{"name":"merchant","type":"address","indexed":true,"internalType":"address"}],"anonymous":false},{"type":"event","name":"MerchantDenied","inputs":[{"name":"merchant","type":"address","indexed":true,"internalType":"address"}],"anonymous":false},{"type":"event","name":"MerchantRemoved","inputs":[{"name":"merchant","type":"address","indexed":true,"internalType":"address"}],"anonymous":false},{"type":"event","name":"Paused","inputs":[{"name":"account","type":"address","indexed":false,"internalType":"address"}],"anonymous":false},{"type":"event","name":"Payment","inputs":[{"name":"token","type":"address","indexed":true,"internalType":"address"},{"name":"to","type":"address","indexed":true,"internalType":"address"},{"name":"amount","type":"uint256","indexed":false,"internalType":"uint256"},{"name":"txHash","type":"bytes32","indexed":true,"internalType":"bytes32"},{"name":"purpose","type":"string","indexed":false,"internalType":"string"}],"anonymous":false},{"type":"event","name":"RecoveryInitiated","inputs":[{"name":"recoveryAddress","type":"address","indexed":true,"internalType":"address"}],"anonymous":false},{"type":"event","name":"SardisTransferred","inputs":[{"name":"oldSardis","type":"address","indexed":true,"internalType":"address"},{"name":"newSardis","type":"address","indexed":true,"internalType":"address"}],"anonymous":false},{"type":"event","name":"SignatureUsed","inputs":[{"name":"signatureHash","type":"bytes32","indexed":true,"internalType":"bytes32"},{"name":"signer","type":"address","indexed":true,"internalType":"address"}],"anonymous":false},{"type":"event","name":"Unpaused","inputs":[{"name":"account","type":"address","indexed":false,"internalType":"address"}],"anonymous":false},{"type":"error","name":"EnforcedPause","inputs":[]},{"type":"error","name":"ExpectedPause","inputs":[]},{"type":"error","name":"ReentrancyGuardReentrantCall","inputs":[]},{"type":"error","name":"SafeERC20FailedOperation","inputs":[{"name":"token","type":"address","internalType":"address"}]}],"bytecode":{"object":"0x6080346200018757601f6200207638819003918201601f19168301916001600160401b038311848410176200018b5780849260a09460405283398101031262000187576200004d816200019f565b906200005c602082016200019f565b916200006b604083016200019f565b606083015160809093015160017f9b779b17422d0df92223018b32b4d1fa46e071723d6817e2486d003becc55f0055936001600160a01b03919083831615620001525782169283156200011c575f8054610100600160a81b03191660089290921b610100600160a81b0316919091179055600180546001600160a01b03199081169094179055600280549093169116179055600355600455620151804204600655604051611ec19081620001b58239f35b60405162461bcd60e51b815260206004820152600e60248201526d496e76616c69642073617264697360901b6044820152606490fd5b60405162461bcd60e51b815260206004820152600d60248201526c125b9d985b1a59081859d95b9d609a1b6044820152606490fd5b5f80fd5b634e487b7160e01b5f52604160045260245ffd5b51906001600160a01b0382168203620001875756fe608080604052600436101561001c575b50361561001a575f80fd5b005b5f3560e01c9081631259a5c81461178457508063133adab6146116f157806313632153146116b957806325ae08021461167c5780632711e26d146115e6578063301e17d4146115c9578063359627e51461154c578063398e2c12146115245780633f4ba83a146114b057806349efe5ae146114395780634d417415146113f45780635c975abb146113d357806367eeba0c146113b65780636c24a76f146113145780636ff1c9bc14611240578063710eb26c146112185780637175a3c21461118f578063735bb1ba146111525780638456cb59146110d757806384a6023214610fb657806393b7ae2914610eb257806398ed9057146109fd578063a15f39e8146109db578063affed0e0146109be578063c4590d3f1461095a578063c9f5b33114610723578063cc9813ae14610410578063d3a7bad3146103ee578063d5da83ea14610358578063f059cf2b1461033b578063f5ff5c7614610310578063f8b2cb4f14610282578063f978fd61146102535763ff74ed631461019e575f61000f565b3461024f57602036600319011261024f576101b761179e565b600154906001600160a01b03808316916101d2338414611a30565b16916101df831515611b00565b81831461021b576001600160a01b03191682176001557f46416cdea2d86d68cb23cc8a5ca09f17293a83b669fa0a5ba49079d575338fcd5f80a3005b60405162461bcd60e51b815260206004820152600c60248201526b53616d65206164647265737360a01b6044820152606490fd5b5f80fd5b3461024f57602036600319011261024f576004355f52600c602052602060ff60405f2054166040519015158152f35b3461024f5760208060031936011261024f576024816001600160a01b036102a761179e565b16604051928380926370a0823160e01b82523060048301525afa908115610305575f916102d8575b50604051908152f35b90508181813d83116102fe575b6102ef8183611904565b8101031261024f5751826102cf565b503d6102e5565b6040513d5f823e3d90fd5b3461024f575f36600319011261024f575f5460405160089190911c6001600160a01b03168152602090f35b3461024f575f36600319011261024f576020600554604051908152f35b3461024f57602036600319011261024f5761037161179e565b60018060a01b0390815f5460081c16331480156103e1575b610392906117f8565b16805f52600860205260405f2060ff1990600182825416179055600960205260405f209081541690557f2beb81302d186467f04cfd3b8eea93007da10ece7066129da967ec8645bbc1ae5f80a2005b5060015482163314610389565b3461024f575f36600319011261024f57602060ff600754166040519015158152f35b3461024f57608036600319011261024f5761042961179e565b6104316117b4565b906044356064359060018060a01b0390815f5460081c1633148015610716575b61045a906117f8565b61046581151561183b565b82151580610709575b156106d1576040516370a0823160e01b815230600482015260209580841694918781602481895afa80156103055784915f916106a0575b50865f52600d895260405f20548082115f14610698576104c491611a6a565b10610653576104d286611cfe565b6104db83611dbb565b610505610513600b546104ed81611886565b600b556040519283918b8301958842918d308a6118a8565b03601f198101835282611904565b519020946105218242611a77565b9260405161010081019381851067ffffffffffffffff86111761063f578989600661062d9482998b6040997fd621b6e9177215e3415852eb57b817df04364ac25a9d6655b20bd009275fb1d79b8b52169b8c83528d8684019081528a84018a815260608501915f8352608086019342855260a08701958652600a60c088019a5f8c5260e089019a5f8c525f5252808e5f20975116906001600160601b0360a01b9182895416178855600188019251169082541617905551600285015551600384015551600483015551600582015501915115159060ff61ff0084549251151560081b1692169061ffff191617179055875f52600d8a52835f20610625848254611a77565b905542611a77565b825191825288820152a4604051908152f35b634e487b7160e01b5f52604160045260245ffd5b60405162461bcd60e51b815260048101889052601e60248201527f496e73756666696369656e7420617661696c61626c652062616c616e636500006044820152606490fd5b50505f6104c4565b809250898092503d83116106ca575b6106b98183611904565b8101031261024f57839051896104a5565b503d6106af565b60405162461bcd60e51b815260206004820152601060248201526f24b73b30b634b210323ab930ba34b7b760811b6044820152606490fd5b5062093a8083111561046e565b5060015482163314610451565b3461024f57604036600319011261024f576004356024359060018060a01b0391825f5460081c163314801561094d575b61075c906117f8565b6107646119ee565b815f52602090600a825260405f20936002850154610783811515611a84565b82156108f75760068601805461079c60ff821615611ac1565b60ff8160081c166108c457600588015442116108905782851161085557928085937f1d74a7889455fa341cf5b14672d378ea2dc99c2dfc8cf4fc68e1f186530f264198999360016108289760ff19161790558460038501556001840190828254165f52600d895261081260405f20918254611a6a565b905561081d85611e5f565b541691541690611953565b604051908152a260017f9b779b17422d0df92223018b32b4d1fa46e071723d6817e2486d003becc55f0055005b60405162461bcd60e51b8152600481018790526013602482015272105b5bdd5b9d08195e18d959591cc81a1bdb19606a1b6044820152606490fd5b60405162461bcd60e51b815260048101879052600c60248201526b121bdb1908195e1c1a5c995960a21b6044820152606490fd5b60405162461bcd60e51b815260048101879052600b60248201526a121bdb19081d9bda59195960aa1b6044820152606490fd5b60405162461bcd60e51b815260048101859052602860248201527f4361707475726520616d6f756e74206d7573742062652067726561746572207460448201526768616e207a65726f60c01b6064820152608490fd5b5060015483163314610753565b3461024f57604036600319011261024f577f4d4981437d0211f9e6843eb024d9ada1fa3a99514d4343d4aece106dd11524bb60406004356024356109a960018060a01b03600154163314611a30565b816003558060045582519182526020820152a1005b3461024f575f36600319011261024f576020600b54604051908152f35b3461024f575f36600319011261024f5760206109f5611b3e565b604051908152f35b3461024f5760c036600319011261024f57610a1661179e565b610a1e6117b4565b60643567ffffffffffffffff811161024f57610a3e9036906004016117ca565b919060a43567ffffffffffffffff811161024f57610a609036906004016117ca565b610a7860018060a09894981b03600154163314611a30565b610a806119ee565b610a886119d1565b60843595864211610e7957600b546040519760208901913060601b83526001600160601b0319808760601b1660348c01528860601b1660488b0152604435605c8b0152607c8a0152609c8901524660bc89015260bc88528760e081011067ffffffffffffffff60e08a01111761063f5760e088016040528751902096875f52600c60205260ff60405f205416610e3757505f549160405160208101907f19457468657265756d205369676e6564204d6573736167653a0a333200000000825289603c820152603c8152606081019181831067ffffffffffffffff84111761063f5760419083604052825190209303610df6575050601b60408301355f1a148015610de6575b15610da1577f7fffffffffffffffffffffffffffffff5d576e7357a4501ddfe92f46681b20a0602083013511610d5c5760805f91602080946040519283526040810135851a82840152803560408401520135606082015282805260015afa15610305575f516001600160a01b0360089290921c8216911603610d1757846020955f52600c865260405f20600160ff1982541617905560018060a01b035f5460081c16907fb151f716093c102b3c8057fec0fbb2817276a60bafa5abe3b6025352cc0e40125f80a3610c5d83611cfe565b6001600160a01b038116907f53bdfd21c5b54343ba3e334d346a58110e2b118cc902663f0bf5b3fc9458f42090610c976044358685611953565b610505610cc5600b5492610caa84611886565b600b556040519283918b83019542918b60443591308a6118a8565b519020604051909586956001600160a01b0316948291610ce89160443584611926565b0390a460017f9b779b17422d0df92223018b32b4d1fa46e071723d6817e2486d003becc55f0055604051908152f35b60405162461bcd60e51b815260206004820152601760248201527f496e76616c6964206167656e74207369676e61747572650000000000000000006044820152606490fd5b60405162461bcd60e51b815260206004820152601960248201527f496e76616c6964207369676e617475726520732076616c7565000000000000006044820152606490fd5b60405162461bcd60e51b815260206004820152601960248201527f496e76616c6964207369676e617475726520762076616c7565000000000000006044820152606490fd5b50601c60408301355f1a14610b8d565b907f496e76616c6964207369676e6174757265206c656e677468000000000000000060a460649362461bcd60e51b8452602085820152601860848201520152fd5b60e060649162461bcd60e51b82820152602060e482015260166101048201527514da59db985d1d5c9948185b1c9958591e481d5cd95960521b61012482015201fd5b60405162461bcd60e51b815260206004820152601160248201527014da59db985d1d5c9948195e1c1a5c9959607a1b6044820152606490fd5b3461024f57602036600319011261024f5760043560018060a01b03805f5460081c1633148015610fa9575b610ee6906117f8565b815f52600a60205260405f2090600282015491610f04831515611a84565b6006810190815491610f1960ff841615611ac1565b60ff8360081c16610f735761010060019361ff0019161790550154165f52600d602052610f4b60405f20918254611a6a565b90557f1980f9aba72e8af444a5bce530bd797caf302101dad83c76a3e528839e6787355f80a2005b60405162461bcd60e51b815260206004820152600e60248201526d105b1c9958591e481d9bda59195960921b6044820152606490fd5b5060015481163314610edd565b3461024f57608036600319011261024f57610fcf61179e565b610fd76117b4565b6064359060443567ffffffffffffffff831161024f5760209361101f7f53bdfd21c5b54343ba3e334d346a58110e2b118cc902663f0bf5b3fc9458f4209436906004016117ca565b94909360018060a01b0390815f5460081c16331480156110ca575b611043906117f8565b61104b6119ee565b6110536119d1565b61105e85151561183b565b61106781611cfe565b61107085611dbb565b61107985611e5f565b610ce88285169461108b878488611953565b6105056110b6600b549261109e84611886565b600b556040519283918e8301958c894293308a6118a8565b519020978897604051948594169784611926565b506001548216331461103a565b3461024f575f36600319011261024f5760015f5461110a828060a01b03808360081c163314908115611145575b506117f8565b6111126119d1565b60ff1916175f557f62e78cea01bee320cd4e420270b5ea74000d11b0c9f74754ebdbfc544b05a2586020604051338152a1005b9050835416331484611104565b3461024f57602036600319011261024f576001600160a01b0361117361179e565b165f526009602052602060ff60405f2054166040519015158152f35b3461024f57602036600319011261024f576004355f52600a60205261010060405f2060ff60018060a01b0391828154169260018201541690600281015460038201546004830154916006600585015494015494604051978852602088015260408701526060860152608085015260a0840152818116151560c084015260081c16151560e0820152f35b3461024f575f36600319011261024f576002546040516001600160a01b039091168152602090f35b3461024f5760208060031936011261024f5761125a61179e565b6002546001600160a01b039081169291338490036112df5716916040516370a0823160e01b81523060048201528281602481875afa928315610305575f936112af575b5050816112a657005b61001a92611953565b9080929350813d83116112d8575b6112c78183611904565b8101031261024f575190838061129d565b503d6112bd565b60405162461bcd60e51b815260048101849052600d60248201526c4f6e6c79207265636f7665727960981b6044820152606490fd5b3461024f5760208060031936011261024f576001600160a01b0361133661179e565b6040516370a0823160e01b815230600482015291168282602481845afa918215610305575f92611387575b505f52600d825260405f20548082115f1461137f576109f591611a6a565b50505f6109f5565b9091508281813d83116113af575b61139f8183611904565b8101031261024f57519083611361565b503d611395565b3461024f575f36600319011261024f576020600454604051908152f35b3461024f575f36600319011261024f57602060ff5f54166040519015158152f35b3461024f57602036600319011261024f5760043580151580910361024f5761142760018060a01b03600154163314611a30565b60ff8019600754169116176007555f80f35b3461024f57602036600319011261024f5761145261179e565b6001546001600160a01b03919061146c9083163314611a30565b16611478811515611b00565b600280546001600160a01b031916821790557f33ab58932e5fab0ba732cd2b11abbb48d7949bbaef42472e37f95f8f55376b405f80a2005b3461024f575f36600319011261024f576114d560018060a01b03600154163314611a30565b5f5460ff8116156115125760ff19165f557f5db9ee0a495bf2e6ff9c91a7834c1ba4fdd244a5e8aa4e537bd38aeae4b073aa6020604051338152a1005b604051638dfc202b60e01b8152600490fd5b3461024f575f36600319011261024f576001546040516001600160a01b039091168152602090f35b3461024f57604036600319011261024f5761157161156861179e565b60243590611b74565b60405191151582528160206040818301528251908160408401525f935b8285106115b0575050606092505f838284010152601f80199101168101030190f35b848101820151868601606001529381019385935061158e565b3461024f575f36600319011261024f576020600354604051908152f35b3461024f57602036600319011261024f576115ff61179e565b60018060a01b0390815f5460081c163314801561166f575b611620906117f8565b16805f52600960205260405f2060ff1990600182825416179055600860205260405f209081541690557fb2847dbccb12294f14d08cb3dc2810124fb84b12ff1039d27b6ed9845c7b3d715f80a2005b5060015482163314611617565b3461024f57602036600319011261024f576001600160a01b0361169d61179e565b165f526008602052602060ff60405f2054166040519015158152f35b3461024f57602036600319011261024f576001600160a01b036116da61179e565b165f52600d602052602060405f2054604051908152f35b3461024f57602036600319011261024f5761170a61179e565b60018060a01b0390815f5460081c1633148015611777575b61172b906117f8565b16805f52600860205260405f2060ff1990818154169055600960205260405f209081541690557fae4bdf5adabafca6721399496d24fe50fb6564effcb386fbae92de33540763bc5f80a2005b5060015482163314611722565b3461024f575f36600319011261024f576020906006548152f35b600435906001600160a01b038216820361024f57565b602435906001600160a01b038216820361024f57565b9181601f8401121561024f5782359167ffffffffffffffff831161024f576020838186019501011161024f57565b156117ff57565b60405162461bcd60e51b81526020600482015260146024820152734f6e6c79206167656e74206f722053617264697360601b6044820152606490fd5b1561184257565b606460405162461bcd60e51b815260206004820152602060248201527f416d6f756e74206d7573742062652067726561746572207468616e207a65726f6044820152fd5b5f1981146118945760010190565b634e487b7160e01b5f52601160045260245ffd5b9492609c969492916001600160601b03199283809260601b16885260601b16601487015260601b166028850152603c840152605c830152607c8201520190565b6040810190811067ffffffffffffffff82111761063f57604052565b90601f8019910116810190811067ffffffffffffffff82111761063f57604052565b91926060938192845260406020850152816040850152848401375f828201840152601f01601f1916010190565b60405163a9059cbb60e01b5f9081526001600160a01b039384166004526024949094529260209060448180855af160015f51148116156119b2575b836040521561199c57505050565b635274afe760e01b835216600482015260249150fd5b60018115166119c857813b15153d15161661198e565b833d5f823e3d90fd5b60ff5f54166119dc57565b60405163d93c066560e01b8152600490fd5b7f9b779b17422d0df92223018b32b4d1fa46e071723d6817e2486d003becc55f006002815414611a1e5760029055565b604051633ee5aeb560e01b8152600490fd5b15611a3757565b60405162461bcd60e51b815260206004820152600b60248201526a4f6e6c792053617264697360a81b6044820152606490fd5b9190820391821161189457565b9190820180921161189457565b15611a8b57565b60405162461bcd60e51b815260206004820152600e60248201526d121bdb19081b9bdd08199bdd5b9960921b6044820152606490fd5b15611ac857565b60405162461bcd60e51b815260206004820152601060248201526f105b1c9958591e4818d85c1d1d5c995960821b6044820152606490fd5b15611b0757565b60405162461bcd60e51b815260206004820152600f60248201526e496e76616c6964206164647265737360881b6044820152606490fd5b60065462015180420411611b6e576004546005545f9181811115611b6957611b669250611a6a565b90565b505090565b60045490565b919060ff6007541680611cdc575b611c9f575f9260018060a01b03168352600960205260409060ff8285205416611c75576003548111611c3d57611bc890600654620151804204115f14611c355784611a77565b60045410611c0857600192815191602083019083821067ffffffffffffffff831117611bf45752815290565b634e487b7160e01b83526041600452602483fd5b51611c12816118e8565b6013815272115e18d959591cc819185a5b1e481b1a5b5a5d606a1b602082015290565b600554611a77565b5051611c48816118e8565b601d81527f45786365656473207065722d7472616e73616374696f6e206c696d6974000000602082015290565b5051611c80816118e8565b600f81526e13595c98da185b9d0819195b9a5959608a1b602082015290565b506040515f9250611caf816118e8565b601981527f4d65726368616e74206e6f7420696e20616c6c6f776c69737400000000000000602082015290565b506001600160a01b0383165f9081526008602052604090205460ff1615611b82565b60ff60075416611d60575b6001600160a01b03165f9081526009602052604090205460ff16611d2957565b60405162461bcd60e51b815260206004820152600f60248201526e13595c98da185b9d0819195b9a5959608a1b6044820152606490fd5b6001600160a01b0381165f9081526008602052604090205460ff16611d095760405162461bcd60e51b815260206004820152601460248201527313595c98da185b9d081b9bdd08185b1b1bddd95960621b6044820152606490fd5b6003548111611e2357611dde90600654620151804204115f14611c35575f611a77565b60045410611de857565b60405162461bcd60e51b8152602060048201526013602482015272115e18d959591cc819185a5b1e481b1a5b5a5d606a1b6044820152606490fd5b60405162461bcd60e51b8152602060048201526014602482015273115e18d959591cc81c195c8b5d1e081b1a5b5a5d60621b6044820152606490fd5b6201518042049060065482115f14611e7957600555600655565b611e869150600554611a77565b60055556fea26469706673582212206935bfc52136610e1951bced86ea0e94a0b8f8ed349d56e66151e4c2741bc6eb64736f6c63430008140033","linkReferences":{}},"methodIdentifiers":{"agent()":"f5ff5c76","allowMerchant(address)":"d5da83ea","allowedMerchants(address)":"25ae0802","canPay(address,uint256)":"359627e5","captureHold(bytes32,uint256)":"c9f5b331","createHold(address,address,uint256,uint256)":"cc9813ae","dailyLimit()":"67eeba0c","deniedMerchants(address)":"735bb1ba","denyMerchant(address)":"2711e26d","emergencyWithdraw(address)":"6ff1c9bc","getAvailableBalance(address)":"6c24a76f","getBalance(address)":"f8b2cb4f","getRemainingDailyLimit()":"a15f39e8","holds(bytes32)":"7175a3c2","lastResetDay()":"1259a5c8","limitPerTx()":"301e17d4","nonce()":"affed0e0","pause()":"8456cb59","paused()":"5c975abb","pay(address,address,uint256,string)":"84a60232","payWithCoSign(address,address,uint256,string,uint256,bytes)":"98ed9057","recoveryAddress()":"710eb26c","removeMerchant(address)":"133adab6","sardis()":"398e2c12","setAllowlistMode(bool)":"4d417415","setLimits(uint256,uint256)":"c4590d3f","setRecoveryAddress(address)":"49efe5ae","spentToday()":"f059cf2b","totalHeldAmount(address)":"13632153","transferSardis(address)":"ff74ed63","unpause()":"3f4ba83a","useAllowlist()":"d3a7bad3","usedSignatures(bytes32)":"f978fd61","voidHold(bytes32)":"93b7ae29"},"id":36}