{"abi":[{"type":"constructor","inputs":[{"name":"_agent","type":"address","internalType":"address"},{"name":"_sardis","type":"address","internalType":"address"},{"name":"_recoveryAddress","type":"address","internalType":"address"},{"name":"_limitPerTx","type":"uint256","internalType":"uint256"},{"name":"_dailyLimit","type":"uint256","internalType":"uint256"}],"stateMutability":"nonpayable"},{"type":"receive","stateMutability":"payable"},{"type":"function","name":"agent","inputs":[],"outputs":[{"name":"","type":"address","internalType":"address"}],"stateMutability":"view"},{"type":"function","name":"allowMerchant","inputs":[{"name":"merchant","type":"address","internalType":"address"}],"outputs":[],"stateMutability":"nonpayable"},{"type":"function","name":"allowedMerchants","inputs":[{"name":"","type":"address","internalType":"address"}],"outputs":[{"name":"","type":"bool","internalType":"bool"}],"stateMutability":"view"},{"type":"function","name":"canPay","inputs":[{"name":"to","type":"address","internalType":"address"},{"name":"amount","type":"uint256","internalType":"uint256"}],"outputs":[{"name":"allowed","type":"bool","internalType":"bool"},{"name":"reason","type":"string","internalType":"string"}],"stateMutability":"view"},{"type":"function","name":"captureHold","inputs":[{"name":"holdId","type":"bytes32","internalType":"bytes32"},{"name":"captureAmount","type":"uint256","internalType":"uint256"}],"outputs":[],"stateMutability":"nonpayable"},{"type":"function","name":"createHold","inputs":[{"name":"merchant","type":"address","internalType":"address"},{"name":"token","type":"address","internalType":"address"},{"name":"amount","type":"uint256","internalType":"uint256"},{"name":"duration","type":"uint256","internalType":"uint256"}],"outputs":[{"name":"","type":"bytes32","internalType":"bytes32"}],"stateMutability":"nonpayable"},{"type":"function","name":"dailyLimit","inputs":[],"outputs":[{"name":"","type":"uint256","internalType":"uint256"}],"stateMutability":"view"},{"type":"function","name":"deniedMerchants","inputs":[{"name":"","type":"address","internalType":"address"}],"outputs":[{"name":"","type":"bool","internalType":"bool"}],"stateMutability":"view"},{"type":"function","name":"denyMerchant","inputs":[{"name":"merchant","type":"address","internalType":"address"}],"outputs":[],"stateMutability":"nonpayable"},{"type":"function","name":"emergencyWithdraw","inputs":[{"name":"token","type":"address","internalType":"address"}],"outputs":[],"stateMutability":"nonpayable"},{"type":"function","name":"getAvailableBalance","inputs":[{"name":"token","type":"address","internalType":"address"}],"outputs":[{"name":"","type":"uint256","internalType":"uint256"}],"stateMutability":"view"},{"type":"function","name":"getBalance","inputs":[{"name":"token","type":"address","internalType":"address"}],"outputs":[{"name":"","type":"uint256","internalType":"uint256"}],"stateMutability":"view"},{"type":"function","name":"getRemainingDailyLimit","inputs":[],"outputs":[{"name":"","type":"uint256","internalType":"uint256"}],"stateMutability":"view"},{"type":"function","name":"holds","inputs":[{"name":"","type":"bytes32","internalType":"bytes32"}],"outputs":[{"name":"merchant","type":"address","internalType":"address"},{"name":"token","type":"address","internalType":"address"},{"name":"amount","type":"uint256","internalType":"uint256"},{"name":"createdAt","type":"uint256","internalType":"uint256"},{"name":"expiresAt","type":"uint256","internalType":"uint256"},{"name":"captured","type":"bool","internalType":"bool"},{"name":"voided","type":"bool","internalType":"bool"}],"stateMutability":"view"},{"type":"function","name":"lastResetDay","inputs":[],"outputs":[{"name":"","type":"uint256","internalType":"uint256"}],"stateMutability":"view"},{"type":"function","name":"limitPerTx","inputs":[],"outputs":[{"name":"","type":"uint256","internalType":"uint256"}],"stateMutability":"view"},{"type":"function","name":"nonce","inputs":[],"outputs":[{"name":"","type":"uint256","internalType":"uint256"}],"stateMutability":"view"},{"type":"function","name":"pause","inputs":[],"outputs":[],"stateMutability":"nonpayable"},{"type":"function","name":"paused","inputs":[],"outputs":[{"name":"","type":"bool","internalType":"bool"}],"stateMutability":"view"},{"type":"function","name":"pay","inputs":[{"name":"token","type":"address","internalType":"address"},{"name":"to","type":"address","internalType":"address"},{"name":"amount","type":"uint256","internalType":"uint256"},{"name":"purpose","type":"string","internalType":"string"}],"outputs":[{"name":"","type":"bytes32","internalType":"bytes32"}],"stateMutability":"nonpayable"},{"type":"function","name":"payWithCoSign","inputs":[{"name":"token","type":"address","internalType":"address"},{"name":"to","type":"address","internalType":"address"},{"name":"amount","type":"uint256","internalType":"uint256"},{"name":"purpose","type":"string","internalType":"string"},{"name":"deadline","type":"uint256","internalType":"uint256"},{"name":"agentSignature","type":"bytes","internalType":"bytes"}],"outputs":[{"name":"","type":"bytes32","internalType":"bytes32"}],"stateMutability":"nonpayable"},{"type":"function","name":"recoveryAddress","inputs":[],"outputs":[{"name":"","type":"address","internalType":"address"}],"stateMutability":"view"},{"type":"function","name":"removeMerchant","inputs":[{"name":"merchant","type":"address","internalType":"address"}],"outputs":[],"stateMutability":"nonpayable"},{"type":"function","name":"sardis","inputs":[],"outputs":[{"name":"","type":"address","internalType":"address"}],"stateMutability":"view"},{"type":"function","name":"setAllowlistMode","inputs":[{"name":"_useAllowlist","type":"bool","internalType":"bool"}],"outputs":[],"stateMutability":"nonpayable"},{"type":"function","name":"setLimits","inputs":[{"name":"_limitPerTx","type":"uint256","internalType":"uint256"},{"name":"_dailyLimit","type":"uint256","internalType":"uint256"}],"outputs":[],"stateMutability":"nonpayable"},{"type":"function","name":"setRecoveryAddress","inputs":[{"name":"_recoveryAddress","type":"address","internalType":"address"}],"outputs":[],"stateMutability":"nonpayable"},{"type":"function","name":"spentToday","inputs":[],"outputs":[{"name":"","type":"uint256","internalType":"uint256"}],"stateMutability":"view"},{"type":"function","name":"totalHeldAmount","inputs":[{"name":"","type":"address","internalType":"address"}],"outputs":[{"name":"","type":"uint256","internalType":"uint256"}],"stateMutability":"view"},{"type":"function","name":"transferSardis","inputs":[{"name":"_newSardis","type":"address","internalType":"address"}],"outputs":[],"stateMutability":"nonpayable"},{"type":"function","name":"unpause","inputs":[],"outputs":[],"stateMutability":"nonpayable"},{"type":"function","name":"useAllowlist","inputs":[],"outputs":[{"name":"","type":"bool","internalType":"bool"}],"stateMutability":"view"},{"type":"function","name":"usedSignatures","inputs":[{"name":"","type":"bytes32","internalType":"bytes32"}],"outputs":[{"name":"","type":"bool","internalType":"bool"}],"stateMutability":"view"},{"type":"function","name":"voidHold","inputs":[{"name":"holdId","type":"bytes32","internalType":"bytes32"}],"outputs":[],"stateMutability":"nonpayable"},{"type":"event","name":"HoldCaptured","inputs":[{"name":"holdId","type":"bytes32","indexed":true,"internalType":"bytes32"},{"name":"capturedAmount","type":"uint256","indexed":false,"internalType":"uint256"}],"anonymous":false},{"type":"event","name":"HoldCreated","inputs":[{"name":"holdId","type":"bytes32","indexed":true,"internalType":"bytes32"},{"name":"merchant","type":"address","indexed":true,"internalType":"address"},{"name":"token","type":"address","indexed":true,"internalType":"address"},{"name":"amount","type":"uint256","indexed":false,"internalType":"uint256"},{"name":"expiresAt","type":"uint256","indexed":false,"internalType":"uint256"}],"anonymous":false},{"type":"event","name":"HoldVoided","inputs":[{"name":"holdId","type":"bytes32","indexed":true,"internalType":"bytes32"}],"anonymous":false},{"type":"event","name":"LimitsUpdated","inputs":[{"name":"limitPerTx","type":"uint256","indexed":false,"internalType":"uint256"},{"name":"dailyLimit","type":"uint256","indexed":false,"internalType":"uint256"}],"anonymous":false},{"type":"event","name":"MerchantAllowed","inputs":[{"name":"merchant","type":"address","indexed":true,"internalType":"address"}],"anonymous":false},{"type":"event","name":"MerchantDenied","inputs":[{"name":"merchant","type":"address","indexed":true,"internalType":"address"}],"anonymous":false},{"type":"event","name":"MerchantRemoved","inputs":[{"name":"merchant","type":"address","indexed":true,"internalType":"address"}],"anonymous":false},{"type":"event","name":"Paused","inputs":[{"name":"account","type":"address","indexed":false,"internalType":"address"}],"anonymous":false},{"type":"event","name":"Payment","inputs":[{"name":"token","type":"address","indexed":true,"internalType":"address"},{"name":"to","type":"address","indexed":true,"internalType":"address"},{"name":"amount","type":"uint256","indexed":false,"internalType":"uint256"},{"name":"txHash","type":"bytes32","indexed":true,"internalType":"bytes32"},{"name":"purpose","type":"string","indexed":false,"internalType":"string"}],"anonymous":false},{"type":"event","name":"RecoveryInitiated","inputs":[{"name":"recoveryAddress","type":"address","indexed":true,"internalType":"address"}],"anonymous":false},{"type":"event","name":"SardisTransferred","inputs":[{"name":"oldSardis","type":"address","indexed":true,"internalType":"address"},{"name":"newSardis","type":"address","indexed":true,"internalType":"address"}],"anonymous":false},{"type":"event","name":"SignatureUsed","inputs":[{"name":"signatureHash","type":"bytes32","indexed":true,"internalType":"bytes32"},{"name":"signer","type":"address","indexed":true,"internalType":"address"}],"anonymous":false},{"type":"event","name":"Unpaused","inputs":[{"name":"account","type":"address","indexed":false,"internalType":"address"}],"anonymous":false},{"type":"error","name":"EnforcedPause","inputs":[]},{"type":"error","name":"ExpectedPause","inputs":[]},{"type":"error","name":"ReentrancyGuardReentrantCall","inputs":[]},{"type":"error","name":"SafeERC20FailedOperation","inputs":[{"name":"token","type":"address","internalType":"address"}]}],"bytecode":{"object":"0x6080346200018757601f62001f5c38819003918201601f19168301916001600160401b038311848410176200018b5780849260a09460405283398101031262000187576200004d816200019f565b906200005c602082016200019f565b916200006b604083016200019f565b606083015160809093015160017f9b779b17422d0df92223018b32b4d1fa46e071723d6817e2486d003becc55f0055936001600160a01b03919083831615620001525782169283156200011c575f8054610100600160a81b03191660089290921b610100600160a81b0316919091179055600180546001600160a01b03199081169094179055600280549093169116179055600355600455620151804204600655604051611da79081620001b58239f35b60405162461bcd60e51b815260206004820152600e60248201526d496e76616c69642073617264697360901b6044820152606490fd5b60405162461bcd60e51b815260206004820152600d60248201526c125b9d985b1a59081859d95b9d609a1b6044820152606490fd5b5f80fd5b634e487b7160e01b5f52604160045260245ffd5b51906001600160a01b0382168203620001875756fe60806040818152600480361015610020575b505050361561001e575f80fd5b005b5f92833560e01c9081631259a5c81461169b57508063133adab61461160657806313632153146115ce57806325ae0802146115905780632711e26d146114f8578063301e17d4146114d9578063359627e514611461578063398e2c12146114385780633f4ba83a146113c457806349efe5ae1461134b5780634d417415146113075780635c975abb146112e557806367eeba0c146112c85780636c24a76f146112155780636ff1c9bc1461112e578063710eb26c146111055780637175a3c21461108a578063735bb1ba1461104c5780638456cb5914610fcf57806384a6023214610ecc57806393b7ae2914610dca57806398ed9057146109a2578063a15f39e81461097e578063affed0e01461095f578063c4590d3f146108fb578063c9f5b33114610729578063cc9813ae14610424578063d3a7bad314610400578063d5da83ea14610368578063f059cf2b14610349578063f5ff5c761461031d578063f8b2cb4f14610281578063f978fd61146102555763ff74ed63036100115734610251576020366003190112610251576101b76116b7565b6001546001600160a01b038082169391926101d3338614611916565b16936101e08515156119e6565b83851461021f5750506001600160a01b03191682176001557f46416cdea2d86d68cb23cc8a5ca09f17293a83b669fa0a5ba49079d575338fcd8380a380f35b906020606492519162461bcd60e51b8352820152600c60248201526b53616d65206164647265737360a01b6044820152fd5b8280fd5b5034610251576020366003190112610251578160209360ff92358152600c855220541690519015158152f35b50919034610319576020928360031936011261025157836001600160a01b036102a86116b7565b169160248451809481936370a0823160e01b835230908301525afa92831561030e5780936102d9575b505051908152f35b909192508382813d8311610307575b6102f281836117ea565b81010312610304575051905f806102d1565b80fd5b503d6102e8565b8251903d90823e3d90fd5b5080fd5b5050346103195781600319360112610319579054905160089190911c6001600160a01b03168152602090f35b5050346103195781600319360112610319576020906005549051908152f35b505034610319576020366003190112610319576103836116b7565b60018060a01b039081845460081c16331480156103f3575b6103a490611715565b169081835260086020528083209060ff1991600183825416179055600960205283209081541690557f2beb81302d186467f04cfd3b8eea93007da10ece7066129da967ec8645bbc1ae8280a280f35b506001548216331461039b565b50503461031957816003193601126103195760209060ff6007541690519015158152f35b5090346102515760803660031901126102515761043f6116b7565b6104476116d1565b9360443560643560018060a01b039283815460081c163314801561071c575b61046f90611715565b8115158061070f575b156106d95785516370a0823160e01b8152308882015260209880861696918a816024818b5afa9081156106cf57908691859161069a575b50888552600d8c528985205480821115610692576104cc91611950565b1061064f576104da82611be4565b6104e385611ca1565b600b546104ef81611758565b600b5561051a8b61050c8b519384928301958a429189308a61177a565b03601f1981018352826117ea565b51902097610528844261195d565b88519260e0840184811067ffffffffffffffff82111761063c578b9796948b96939487958f948c908c958952169b8c84528d868501908152888501908c825260608601924284526080870194855260a08701988a8a5260c08801988b8a528b52600a9052808b8b20975116906001600160601b0360a01b918289541617885560018801925116908254161790555160028501555160038401555190820155600501915115159082549051151560081b61ff00169160ff169061ffff191617179055878152600d8b5220838154906105fe9161195d565b905561060a904261195d565b8151928352888301527fd621b6e9177215e3415852eb57b817df04364ac25a9d6655b20bd009275fb1d791a451908152f35b634e487b7160e01b865260418452602486fd5b875162461bcd60e51b8152808a018b9052601e60248201527f496e73756666696369656e7420617661696c61626c652062616c616e636500006044820152606490fd5b5050836104cc565b8092508c8092503d83116106c8575b6106b381836117ea565b810103126106c4578590515f6104af565b8380fd5b503d6106a9565b89513d86823e3d90fd5b855162461bcd60e51b8152602081890152601060248201526f24b73b30b634b210323ab930ba34b7b760811b6044820152606490fd5b5062093a80821115610478565b5060015484163314610466565b5082903461031957826003193601126103195780359060243560018060a01b039182855460081c16331480156108ee575b61076390611715565b61076b6118d4565b838552602092600a84528686209160028301549061078a82151561196a565b600584019081549061079f60ff8316156119a7565b60ff8260081c166108bd5780860154421161088b57838711610852575092808987947f1d74a7889455fa341cf5b14672d378ea2dc99c2dfc8cf4fc68e1f186530f26419a9b9c979460016108269860ff1916179055610810886001870193858554168152600d8d5220918254611950565b905561081b85611d45565b541691541690611839565b51908152a260017f9b779b17422d0df92223018b32b4d1fa46e071723d6817e2486d003becc55f005580f35b8a5162461bcd60e51b81529081018890526013602482015272105b5bdd5b9d08195e18d959591cc81a1bdb19606a1b6044820152606490fd5b8a5162461bcd60e51b8152908101889052600c60248201526b121bdb1908195e1c1a5c995960a21b6044820152606490fd5b8a5162461bcd60e51b8152908101889052600b60248201526a121bdb19081d9bda59195960aa1b6044820152606490fd5b506001548316331461075a565b509034610251578060031936011261025157817f4d4981437d0211f9e6843eb024d9ada1fa3a99514d4343d4aece106dd11524bb923590602435809161094c60018060a01b03600154163314611916565b836003555582519182526020820152a180f35b505034610319578160031936011261031957602090600b549051908152f35b50503461031957816003193601126103195760209061099b611a24565b9051908152f35b509190346103195760c0366003190112610319576109be6116b7565b6109c66116d1565b9067ffffffffffffffff90606435828111610dc6576109e890369088016116e7565b95909360a43584811161025157610a029036908a016116e7565b92909860018060a01b0393610a1c85600154163314611916565b610a246118d4565b610a2c6118b7565b6084359a8b4211610d8f57600b54978a519c60209d8e8101913060601b83526001600160601b0319808c60601b1660348401528960601b1660488301526044359b8c605c840152607c830152609c8201524660bc82015260bc815260e081019181831084841117610d7c57908f9695949392918e600c60ff9285835284519020998a8c525289205416610d3f575050908d92918654938d519081017f19457468657265756d205369676e6564204d6573736167653a0a333200000000815287603c830152603c8252606082019282841090841117610d2c57828f52815190209360401901610ceb5750508b810135861a601b81148015610ce1575b15610c9d578c51928352828f01528035828d01528d013560608201528480528c90859060809060015afa15610c9357859060081c168584511603610c50575090817f53bdfd21c5b54343ba3e334d346a58110e2b118cc902663f0bf5b3fc9458f4209493928252600c8b52888220600160ff198254161790557fb151f716093c102b3c8057fec0fbb2817276a60bafa5abe3b6025352cc0e401284835460081c169280a3610bd481611be4565b610c2382851694610be6878488611839565b600b5490610bf382611758565b600b55610c108c61050c8c519384928301958c894293308a61177a565b519020988997895194859416978461180c565b0390a460017f9b779b17422d0df92223018b32b4d1fa46e071723d6817e2486d003becc55f005551908152f35b885162461bcd60e51b81529081018b9052601760248201527f496e76616c6964206167656e74207369676e61747572650000000000000000006044820152606490fd5b89513d85823e3d90fd5b508b5162461bcd60e51b81528085018f9052601960248201527f496e76616c6964207369676e617475726520762076616c7565000000000000006044820152606490fd5b50601c8114610b27565b908f60a46064937f496e76616c6964207369676e6174757265206c656e67746800000000000000009262461bcd60e51b855285820152601860848201520152fd5b634e487b7160e01b895260418752602489fd5b908f6101246064937514da59db985d1d5c9948185b1c9958591e481d5cd95960521b9262461bcd60e51b855260e482015260166101048201520152fd5b634e487b7160e01b885260418752602488fd5b895162461bcd60e51b8152602081850152601160248201527014da59db985d1d5c9948195e1c1a5c9959607a1b6044820152606490fd5b8580fd5b50346102515760203660031901126102515780359160018060a01b0380855460081c1633148015610ebf575b610dff90611715565b838552600a602052818520600281015493610e1b85151561196a565b6005820190815490610e3060ff8316156119a7565b60ff8260081c16610e8b575061ff00191661010017905560010154168452600d602052832080549091610e6291611950565b90557f1980f9aba72e8af444a5bce530bd797caf302101dad83c76a3e528839e6787358280a280f35b606490602087519162461bcd60e51b8352820152600e60248201526d105b1c9958591e481d9bda59195960921b6044820152fd5b5060015481163314610df6565b5091903461031957608036600319011261031957610ee86116b7565b610ef06116d1565b906044359060643567ffffffffffffffff8111610dc657610f376020977f53bdfd21c5b54343ba3e334d346a58110e2b118cc902663f0bf5b3fc9458f420923691016116e7565b965490946001600160a01b039160081c821633148015610fc2575b610f5b90611715565b610f636118d4565b610f6b6118b7565b610f7481611be4565b610f7d85611ca1565b610f8685611d45565b610c2382851694610f98878488611839565b61050c610c10600b5492610fab84611758565b600b558b519283918f8301958c894293308a61177a565b5060015482163314610f52565b50503461031957816003193601126103195760207f62e78cea01bee320cd4e420270b5ea74000d11b0c9f74754ebdbfc544b05a2589160018454611028828060a01b03808360081c16331490811561103f575b50611715565b6110306118b7565b60ff191617845551338152a180f35b905083541633145f611022565b5050346103195760203660031901126103195760209160ff9082906001600160a01b036110776116b7565b1681526009855220541690519015158152f35b509034610251576020366003190112610251578060ff9160e09484358152600a6020522060018060a01b03938482541694600183015416926002830154906005600385015493850154940154948151978852602088015286015260608501526080840152818116151560a084015260081c16151560c0820152f35b50503461031957816003193601126103195760025490516001600160a01b039091168152602090f35b50903461025157602091826003193601126106c45761114b6116b7565b6002546001600160a01b039081169291338490036111e25716938351916370a0823160e01b835230908301528082602481885afa9384156111d9575085936111a9575b505081611199578380f35b6111a292611839565b5f80808380f35b9080929350813d83116111d2575b6111c181836117ea565b810103126106c45751905f8061118e565b503d6111b7565b513d87823e3d90fd5b845162461bcd60e51b8152808401879052600d60248201526c4f6e6c79207265636f7665727960981b6044820152606490fd5b5091346103045760209283600319360112610319576001600160a01b0361123a6116b7565b168351916370a0823160e01b835230908301528482602481845afa9182156112be57839261128f575b508252600d84528282205490818111156112875761099b9250611950565b51908152f35b505090611281565b9091508481813d83116112b7575b6112a781836117ea565b810103126102515751905f611263565b503d61129d565b84513d85823e3d90fd5b503461025157826003193601126102515760209250549051908152f35b50503461031957816003193601126103195760ff602092541690519015158152f35b83823461031957602036600319011261031957358015158091036103195761133a60018060a01b03600154163314611916565b60ff80196007541691161760075580f35b8334610304576020366003190112610304576113656116b7565b6001546001600160a01b03919061137f9083163314611916565b1661138b8115156119e6565b600280546001600160a01b031916821790557f33ab58932e5fab0ba732cd2b11abbb48d7949bbaef42472e37f95f8f55376b408280a280f35b50346102515782600319360112610251576113ea60018060a01b03600154163314611916565b82549060ff82161561142a575060ff19168255513381527f5db9ee0a495bf2e6ff9c91a7834c1ba4fdd244a5e8aa4e537bd38aeae4b073aa90602090a180f35b8251638dfc202b60e01b8152fd5b50503461031957816003193601126103195760015490516001600160a01b039091168152602090f35b50503461031957806003193601126103195761148761147e6116b7565b60243590611a5a565b918051938492151583526020828185015284518093850152815b8381106114c257505060608094508284010152601f80199101168101030190f35b8086018201518782016060015286945081016114a1565b5050346103195781600319360112610319576020906003549051908152f35b505034610319576020366003190112610319576115136116b7565b60018060a01b039081845460081c1633148015611583575b61153490611715565b169081835260096020528083209060ff1991600183825416179055600860205283209081541690557fb2847dbccb12294f14d08cb3dc2810124fb84b12ff1039d27b6ed9845c7b3d718280a280f35b506001548216331461152b565b5050346103195760203660031901126103195760209160ff9082906001600160a01b036115bb6116b7565b1681526008855220541690519015158152f35b5050346103195760203660031901126103195760209181906001600160a01b036115f66116b7565b168152600d845220549051908152f35b505034610319576020366003190112610319576116216116b7565b60018060a01b039081845460081c163314801561168e575b61164290611715565b169081835260086020528083209060ff1991828154169055600960205283209081541690557fae4bdf5adabafca6721399496d24fe50fb6564effcb386fbae92de33540763bc8280a280f35b5060015482163314611639565b8490346103195781600319360112610319576020906006548152f35b600435906001600160a01b03821682036116cd57565b5f80fd5b602435906001600160a01b03821682036116cd57565b9181601f840112156116cd5782359167ffffffffffffffff83116116cd57602083818601950101116116cd57565b1561171c57565b60405162461bcd60e51b81526020600482015260146024820152734f6e6c79206167656e74206f722053617264697360601b6044820152606490fd5b5f1981146117665760010190565b634e487b7160e01b5f52601160045260245ffd5b9492609c969492916001600160601b03199283809260601b16885260601b16601487015260601b166028850152603c840152605c830152607c8201520190565b6040810190811067ffffffffffffffff8211176117d657604052565b634e487b7160e01b5f52604160045260245ffd5b90601f8019910116810190811067ffffffffffffffff8211176117d657604052565b91926060938192845260406020850152816040850152848401375f828201840152601f01601f1916010190565b60405163a9059cbb60e01b5f9081526001600160a01b039384166004526024949094529260209060448180855af160015f5114811615611898575b836040521561188257505050565b635274afe760e01b835216600482015260249150fd5b60018115166118ae57813b15153d151616611874565b833d5f823e3d90fd5b60ff5f54166118c257565b60405163d93c066560e01b8152600490fd5b7f9b779b17422d0df92223018b32b4d1fa46e071723d6817e2486d003becc55f0060028154146119045760029055565b604051633ee5aeb560e01b8152600490fd5b1561191d57565b60405162461bcd60e51b815260206004820152600b60248201526a4f6e6c792053617264697360a81b6044820152606490fd5b9190820391821161176657565b9190820180921161176657565b1561197157565b60405162461bcd60e51b815260206004820152600e60248201526d121bdb19081b9bdd08199bdd5b9960921b6044820152606490fd5b156119ae57565b60405162461bcd60e51b815260206004820152601060248201526f105b1c9958591e4818d85c1d1d5c995960821b6044820152606490fd5b156119ed57565b60405162461bcd60e51b815260206004820152600f60248201526e496e76616c6964206164647265737360881b6044820152606490fd5b60065462015180420411611a54576004546005545f9181811115611a4f57611a4c9250611950565b90565b505090565b60045490565b919060ff6007541680611bc2575b611b85575f9260018060a01b03168352600960205260409060ff8285205416611b5b576003548111611b2357611aae90600654620151804204115f14611b1b578461195d565b60045410611aee57600192815191602083019083821067ffffffffffffffff831117611ada5752815290565b634e487b7160e01b83526041600452602483fd5b51611af8816117ba565b6013815272115e18d959591cc819185a5b1e481b1a5b5a5d606a1b602082015290565b60055461195d565b5051611b2e816117ba565b601d81527f45786365656473207065722d7472616e73616374696f6e206c696d6974000000602082015290565b5051611b66816117ba565b600f81526e13595c98da185b9d0819195b9a5959608a1b602082015290565b506040515f9250611b95816117ba565b601981527f4d65726368616e74206e6f7420696e20616c6c6f776c69737400000000000000602082015290565b506001600160a01b0383165f9081526008602052604090205460ff1615611a68565b60ff60075416611c46575b6001600160a01b03165f9081526009602052604090205460ff16611c0f57565b60405162461bcd60e51b815260206004820152600f60248201526e13595c98da185b9d0819195b9a5959608a1b6044820152606490fd5b6001600160a01b0381165f9081526008602052604090205460ff16611bef5760405162461bcd60e51b815260206004820152601460248201527313595c98da185b9d081b9bdd08185b1b1bddd95960621b6044820152606490fd5b6003548111611d0957611cc490600654620151804204115f14611b1b575f61195d565b60045410611cce57565b60405162461bcd60e51b8152602060048201526013602482015272115e18d959591cc819185a5b1e481b1a5b5a5d606a1b6044820152606490fd5b60405162461bcd60e51b8152602060048201526014602482015273115e18d959591cc81c195c8b5d1e081b1a5b5a5d60621b6044820152606490fd5b6201518042049060065482115f14611d5f57600555600655565b611d6c915060055461195d565b60055556fea26469706673582212204c1c2653d925b1a8d525e2e060231f15ea19a10bf004f205f24dce07e39216ad64736f6c63430008140033","linkReferences":{}},"methodIdentifiers":{"agent()":"f5ff5c76","allowMerchant(address)":"d5da83ea","allowedMerchants(address)":"25ae0802","canPay(address,uint256)":"359627e5","captureHold(bytes32,uint256)":"c9f5b331","createHold(address,address,uint256,uint256)":"cc9813ae","dailyLimit()":"67eeba0c","deniedMerchants(address)":"735bb1ba","denyMerchant(address)":"2711e26d","emergencyWithdraw(address)":"6ff1c9bc","getAvailableBalance(address)":"6c24a76f","getBalance(address)":"f8b2cb4f","getRemainingDailyLimit()":"a15f39e8","holds(bytes32)":"7175a3c2","lastResetDay()":"1259a5c8","limitPerTx()":"301e17d4","nonce()":"affed0e0","pause()":"8456cb59","paused()":"5c975abb","pay(address,address,uint256,string)":"84a60232","payWithCoSign(address,address,uint256,string,uint256,bytes)":"98ed9057","recoveryAddress()":"710eb26c","removeMerchant(address)":"133adab6","sardis()":"398e2c12","setAllowlistMode(bool)":"4d417415","setLimits(uint256,uint256)":"c4590d3f","setRecoveryAddress(address)":"49efe5ae","spentToday()":"f059cf2b","totalHeldAmount(address)":"13632153","transferSardis(address)":"ff74ed63","unpause()":"3f4ba83a","useAllowlist()":"d3a7bad3","usedSignatures(bytes32)":"f978fd61","voidHold(bytes32)":"93b7ae29"},"id":39}