{"abi":[{"type":"constructor","inputs":[{"name":"_defaultLimitPerTx","type":"uint256","internalType":"uint256"},{"name":"_defaultDailyLimit","type":"uint256","internalType":"uint256"},{"name":"_defaultRecoveryAddress","type":"address","internalType":"address"}],"stateMutability":"nonpayable"},{"type":"receive","stateMutability":"payable"},{"type":"function","name":"agentWallets","inputs":[{"name":"","type":"address","internalType":"address"},{"name":"","type":"uint256","internalType":"uint256"}],"outputs":[{"name":"","type":"address","internalType":"address"}],"stateMutability":"view"},{"type":"function","name":"allWallets","inputs":[{"name":"","type":"uint256","internalType":"uint256"}],"outputs":[{"name":"","type":"address","internalType":"address"}],"stateMutability":"view"},{"type":"function","name":"createWallet","inputs":[{"name":"agent","type":"address","internalType":"address"}],"outputs":[{"name":"wallet","type":"address","internalType":"address"}],"stateMutability":"payable"},{"type":"function","name":"createWalletDeterministic","inputs":[{"name":"agent","type":"address","internalType":"address"},{"name":"salt","type":"bytes32","internalType":"bytes32"}],"outputs":[{"name":"wallet","type":"address","internalType":"address"}],"stateMutability":"payable"},{"type":"function","name":"createWalletWithLimits","inputs":[{"name":"agent","type":"address","internalType":"address"},{"name":"limitPerTx","type":"uint256","internalType":"uint256"},{"name":"dailyLimit","type":"uint256","internalType":"uint256"}],"outputs":[{"name":"wallet","type":"address","internalType":"address"}],"stateMutability":"payable"},{"type":"function","name":"defaultDailyLimit","inputs":[],"outputs":[{"name":"","type":"uint256","internalType":"uint256"}],"stateMutability":"view"},{"type":"function","name":"defaultLimitPerTx","inputs":[],"outputs":[{"name":"","type":"uint256","internalType":"uint256"}],"stateMutability":"view"},{"type":"function","name":"defaultRecoveryAddress","inputs":[],"outputs":[{"name":"","type":"address","internalType":"address"}],"stateMutability":"view"},{"type":"function","name":"deploymentFee","inputs":[],"outputs":[{"name":"","type":"uint256","internalType":"uint256"}],"stateMutability":"view"},{"type":"function","name":"getAgentWalletCount","inputs":[{"name":"agent","type":"address","internalType":"address"}],"outputs":[{"name":"","type":"uint256","internalType":"uint256"}],"stateMutability":"view"},{"type":"function","name":"getAgentWallets","inputs":[{"name":"agent","type":"address","internalType":"address"}],"outputs":[{"name":"","type":"address[]","internalType":"address[]"}],"stateMutability":"view"},{"type":"function","name":"getTotalWallets","inputs":[],"outputs":[{"name":"","type":"uint256","internalType":"uint256"}],"stateMutability":"view"},{"type":"function","name":"isValidWallet","inputs":[{"name":"","type":"address","internalType":"address"}],"outputs":[{"name":"","type":"bool","internalType":"bool"}],"stateMutability":"view"},{"type":"function","name":"owner","inputs":[],"outputs":[{"name":"","type":"address","internalType":"address"}],"stateMutability":"view"},{"type":"function","name":"pause","inputs":[],"outputs":[],"stateMutability":"nonpayable"},{"type":"function","name":"paused","inputs":[],"outputs":[{"name":"","type":"bool","internalType":"bool"}],"stateMutability":"view"},{"type":"function","name":"predictWalletAddress","inputs":[{"name":"agent","type":"address","internalType":"address"},{"name":"salt","type":"bytes32","internalType":"bytes32"}],"outputs":[{"name":"predicted","type":"address","internalType":"address"}],"stateMutability":"view"},{"type":"function","name":"renounceOwnership","inputs":[],"outputs":[],"stateMutability":"nonpayable"},{"type":"function","name":"setDefaultLimits","inputs":[{"name":"_limitPerTx","type":"uint256","internalType":"uint256"},{"name":"_dailyLimit","type":"uint256","internalType":"uint256"}],"outputs":[],"stateMutability":"nonpayable"},{"type":"function","name":"setDefaultRecoveryAddress","inputs":[{"name":"_address","type":"address","internalType":"address"}],"outputs":[],"stateMutability":"nonpayable"},{"type":"function","name":"setDeploymentFee","inputs":[{"name":"_fee","type":"uint256","internalType":"uint256"}],"outputs":[],"stateMutability":"nonpayable"},{"type":"function","name":"transferOwnership","inputs":[{"name":"newOwner","type":"address","internalType":"address"}],"outputs":[],"stateMutability":"nonpayable"},{"type":"function","name":"unpause","inputs":[],"outputs":[],"stateMutability":"nonpayable"},{"type":"function","name":"verifyWallet","inputs":[{"name":"wallet","type":"address","internalType":"address"}],"outputs":[{"name":"","type":"bool","internalType":"bool"}],"stateMutability":"view"},{"type":"function","name":"walletToAgent","inputs":[{"name":"","type":"address","internalType":"address"}],"outputs":[{"name":"","type":"address","internalType":"address"}],"stateMutability":"view"},{"type":"function","name":"withdrawFees","inputs":[{"name":"to","type":"address","internalType":"address"}],"outputs":[],"stateMutability":"nonpayable"},{"type":"event","name":"DefaultLimitsUpdated","inputs":[{"name":"limitPerTx","type":"uint256","indexed":false,"internalType":"uint256"},{"name":"dailyLimit","type":"uint256","indexed":false,"internalType":"uint256"}],"anonymous":false},{"type":"event","name":"DeploymentFeeUpdated","inputs":[{"name":"newFee","type":"uint256","indexed":false,"internalType":"uint256"}],"anonymous":false},{"type":"event","name":"FeesWithdrawn","inputs":[{"name":"to","type":"address","indexed":true,"internalType":"address"},{"name":"amount","type":"uint256","indexed":false,"internalType":"uint256"}],"anonymous":false},{"type":"event","name":"OwnershipTransferred","inputs":[{"name":"previousOwner","type":"address","indexed":true,"internalType":"address"},{"name":"newOwner","type":"address","indexed":true,"internalType":"address"}],"anonymous":false},{"type":"event","name":"Paused","inputs":[{"name":"account","type":"address","indexed":false,"internalType":"address"}],"anonymous":false},{"type":"event","name":"RecoveryAddressUpdated","inputs":[{"name":"newAddress","type":"address","indexed":true,"internalType":"address"}],"anonymous":false},{"type":"event","name":"Unpaused","inputs":[{"name":"account","type":"address","indexed":false,"internalType":"address"}],"anonymous":false},{"type":"event","name":"WalletCreated","inputs":[{"name":"agent","type":"address","indexed":true,"internalType":"address"},{"name":"wallet","type":"address","indexed":true,"internalType":"address"},{"name":"limitPerTx","type":"uint256","indexed":false,"internalType":"uint256"},{"name":"dailyLimit","type":"uint256","indexed":false,"internalType":"uint256"}],"anonymous":false},{"type":"error","name":"EnforcedPause","inputs":[]},{"type":"error","name":"ExpectedPause","inputs":[]},{"type":"error","name":"FailedCall","inputs":[]},{"type":"error","name":"InsufficientBalance","inputs":[{"name":"balance","type":"uint256","internalType":"uint256"},{"name":"needed","type":"uint256","internalType":"uint256"}]},{"type":"error","name":"OwnableInvalidOwner","inputs":[{"name":"owner","type":"address","internalType":"address"}]},{"type":"error","name":"OwnableUnauthorizedAccount","inputs":[{"name":"account","type":"address","internalType":"address"}]}],"bytecode":{"object":"0x6080346100d657601f6133c638819003918201601f19168301916001600160401b038311848410176100da578084926060946040528339810103126100d657805160208201516040909201516001600160a01b039283821692918390036100d65733156100be575f549160018060a01b03199233848216175f55604051953391167f8be0079c531659141344cd1fd0a4f28419497f9722a3daafe3b4186f6b6457e05f80a360015560025560035416176003556132d790816100ef8239f35b604051631e4fbdf760e01b81525f6004820152602490fd5b5f80fd5b634e487b7160e01b5f52604160045260245ffdfe608060405260043610156200001c575b36156200001a575f80fd5b005b5f3560e01c806312fc009614620001e9578063164e68de14620001e35780631f26477814620001dd5780632a9d017814620001d75780632c348f1214620001d15780633a07478814620001cb5780633cbe808514620001c55780633f4ba83a14620001bf578063439a301214620001595780635843732014620001b95780635c975abb14620001b3578063715018a614620001ad5780638456cb5914620001a75780638cf8350f14620001a15780638da5cb5b146200019b578063b054a9e81462000195578063b28d89c3146200018f578063c76b08881462000189578063ccec4d8d1462000183578063d002462b146200017d578063d8a8bd3f1462000177578063e16abb171462000171578063f2cff57f146200016b578063f2fde38b1462000165578063f5f50eb1146200015f5763fc399c79036200000f575b62000846565b62000d93565b62000d06565b62000ce7565b62000caa565b62000c04565b62000bb4565b62000b8a565b62000b6b565b62000adf565b62000a66565b62000a3d565b620009e0565b62000979565b6200091b565b620008f5565b62000887565b620007cd565b620007ae565b62000772565b62000714565b620006ad565b6200053f565b62000490565b62000232565b600435906001600160a01b03821682036200020657565b5f80fd5b604090600319011262000206576004356001600160a01b038116810362000206579060243590565b6200046462000241366200020a565b906200024c62000dde565b6001600160a01b039181831690620003c9906200026b83151562000f96565b6200027b60075434101562000fdb565b6040516001600160601b0319606086901b1660208201908152603480830193909352918152601f199190620002b26054826200110c565b51902090620003466200035361207692620002d0602085016200112f565b938085526200122c6020860139600354600154600254604080516001600160a01b038d81166020830152309282019290925293166060840152608083019190915260a082015260c082810182526200032990826200110c565b6040519384916200033f602084018098620011c2565b90620011c2565b039081018352826200110c565b51905ff59384169262000368841515620011ed565b6001600160a01b0381165f90815260046020526040902062000392908690620010ac565b620010ac565b6001600160a01b0385165f9081526005602052604090205b80546001600160a01b0319166001600160a01b03909216919091179055565b620003d48362001047565b6001600160a01b0383165f908152600860205260409020620003fe905b805460ff19166001179055565b6007548034118062000486575b62000468575b506001546002546040805192835260208301919091527f5f8149848a39aa518d033ba89e625e9725384f35f016eee2d5a97b14ffa04e1f91a36040516001600160a01b0390911681529081906020820190565b0390f35b620004786200047f9134620010ea565b3362001141565b5f62000411565b508015156200040b565b34620002065760203660031901126200020657620004ad620001ef565b620004b762000db2565b4790811562000504576001600160a01b0316907fc0819c13be868895eb93e40eaceb96de976442fa1d404e5c55f14bb65a8c489a90602090620004fb818562001141565b604051908152a2005b60405162461bcd60e51b81526020600482015260136024820152724e6f206665657320746f20776974686472617760681b6044820152606490fd5b3462000206576200046462000693620006876200055c366200020a565b6040516001600160601b0319606084901b1660208083019182526034808401949094529282526200067891601f199190620005996054826200110c565b519020936200062862000635856200061361207694620005bb8387016200112f565b958087526200122c84880139600354600154600254604080516001600160a01b0395861697810197885230602089015294909316928601929092526060850152608084015291829060a001038681018352826200110c565b6040519283916200033f8984018097620011c2565b038481018352826200110c565b5190206040516001600160f81b03199481019485523060601b6001600160601b031916600186015260158501959095526035840152919291826055850162000346565b5190206001600160a01b031690565b6001600160a01b031690565b6040516001600160a01b0390911681529081906020820190565b606036600319011262000206576020620006d8620006ca620001ef565b604435906024359062000dff565b6040516001600160a01b039091168152f35b805482101562000700575f5260205f2001905f90565b634e487b7160e01b5f52603260045260245ffd5b3462000206576040366003190112620002065762000731620001ef565b6024359060018060a01b038091165f52600460205260405f20805483101562000206576020926200076291620006ea565b9190546040519260031b1c168152f35b346200020657602036600319011262000206576001600160a01b0362000797620001ef565b165f526004602052602060405f2054604051908152f35b3462000206575f36600319011262000206576020600154604051908152f35b3462000206575f806003193601126200084357620007ea62000db2565b805460ff8160a01c1615620008315760ff60a01b191681556040513381527f5db9ee0a495bf2e6ff9c91a7834c1ba4fdd244a5e8aa4e537bd38aeae4b073aa90602090a180f35b604051638dfc202b60e01b8152600490fd5b80fd5b346200020657602036600319011262000206576001600160a01b036200086b620001ef565b165f526008602052602060ff60405f2054166040519015158152f35b346200020657604036600319011262000206577f5fa26bc15387a83f361b29c343c84bf1ea81a7e4a664769474c232b20e3e8fe7602435600435620008cb62000db2565b8060015581600255620008f06040519283928360209093929193604081019481520152565b0390a1005b3462000206575f3660031901126200020657602060ff5f5460a01c166040519015158152f35b3462000206575f8060031936011262000843576200093862000db2565b80546001600160a01b03198116825581906001600160a01b03167f8be0079c531659141344cd1fd0a4f28419497f9722a3daafe3b4186f6b6457e08280a380f35b3462000206575f8060031936011262000843576200099662000db2565b620009a062000dde565b805460ff60a01b1916600160a01b1781556040513381527f62e78cea01bee320cd4e420270b5ea74000d11b0c9f74754ebdbfc544b05a25890602090a180f35b34620002065760203660031901126200020657600435600654811015620002065760065f527ff652222313e28459528d920b65115c16c04f3efc82aaedc97be59f3f377c0d3f01546040516001600160a01b039091168152602090f35b3462000206575f36600319011262000206575f546040516001600160a01b039091168152602090f35b602036600319011262000206576020620006d862000a83620001ef565b62000a8d62000dde565b6001546002549162000dff565b602090816040818301928281528551809452019301915f5b82811062000ac1575050505090565b83516001600160a01b03168552938101939281019260010162000ab2565b34620002065760208060031936011262000206576001600160a01b038062000b06620001ef565b165f526004825260405f209160405180928285549283815201945f52825f20925f915b83831062000b5157620004648662000b44818a03826200110c565b6040519182918262000a9a565b845481168752958101956001948501949092019162000b29565b3462000206575f36600319011262000206576020600254604051908152f35b3462000206575f36600319011262000206576003546040516001600160a01b039091168152602090f35b346200020657602036600319011262000206577f40bd824d588484917db8fa4fc894c1e0feae5a75885290ba7b97521cebf82a80602060043562000bf762000db2565b80600755604051908152a1005b3462000206576020366003190112620002065762000c21620001ef565b62000c2b62000db2565b6001600160a01b0316801562000c7357600380546001600160a01b031916821790557f83c14e1947c5a639434d6195a6e9d85ab3471a5049c66e0aa46b71e2c0a06dde5f80a2005b60405162461bcd60e51b815260206004820152600f60248201526e496e76616c6964206164647265737360881b6044820152606490fd5b3462000206576020366003190112620002065760206001600160a01b038062000cd2620001ef565b165f526005825260405f205416604051908152f35b3462000206575f36600319011262000206576020600754604051908152f35b3462000206576020366003190112620002065762000d23620001ef565b62000d2d62000db2565b6001600160a01b03908116801562000d7b575f80546001600160a01b03198116831782559092167f8be0079c531659141344cd1fd0a4f28419497f9722a3daafe3b4186f6b6457e08380a380f35b604051631e4fbdf760e01b81525f6004820152602490fd5b3462000206575f36600319011262000206576020600654604051908152f35b5f546001600160a01b0316330362000dc657565b60405163118cdaa760e01b8152336004820152602490fd5b60ff5f5460a01c1662000ded57565b60405163d93c066560e01b8152600490fd5b909162000e0b62000dde565b6001600160a01b03928284169162000e2583151562000f96565b62000e3560075434101562000fdb565b6003546001600160a01b0316604051906120769081830183811067ffffffffffffffff82111762000f90578562000ea192869286956200122c87396001600160a01b03808c16825230602083015290911660408201526060810191909152608081019190915260a00190565b03905ff091821562000f8a5762000f15957f5f8149848a39aa518d033ba89e625e9725384f35f016eee2d5a97b14ffa04e1f9316958562000ef8886200038c819960018060a01b03165f52600460205260405f2090565b6001600160a01b0387165f908152600560205260409020620003aa565b62000f208562001047565b6001600160a01b0385165f90815260086020526040902062000f4290620003f1565b6007548034118062000f80575b62000f69575b50604080519182526020820192909252a390565b6200047862000f799134620010ea565b5f62000f55565b5080151562000f4f565b6200103c565b62001028565b1562000f9e57565b60405162461bcd60e51b8152602060048201526015602482015274496e76616c6964206167656e74206164647265737360581b6044820152606490fd5b1562000fe357565b60405162461bcd60e51b815260206004820152601b60248201527f496e73756666696369656e74206465706c6f796d656e742066656500000000006044820152606490fd5b634e487b7160e01b5f52604160045260245ffd5b6040513d5f823e3d90fd5b600654600160401b81101562000f90576001810180600655811015620007005760065f527ff652222313e28459528d920b65115c16c04f3efc82aaedc97be59f3f377c0d3f0180546001600160a01b0319166001600160a01b03909216919091179055565b8054600160401b81101562000f9057620010cc91600182018155620006ea565b819291549060031b9160018060a01b03809116831b921b1916179055565b91908203918211620010f857565b634e487b7160e01b5f52601160045260245ffd5b90601f8019910116810190811067ffffffffffffffff82111762000f9057604052565b906200113f60405192836200110c565b565b814710620011a157604051602081019080821067ffffffffffffffff83111762000f90575f9384938480949381946040525260018060a01b03165af1156200118557565b3d15155f036200103c5760405163d6bda27560e01b8152600490fd5b5060405163cf47918160e01b81524760048201526024810191909152604490fd5b908151915f5b838110620011d9575050015f815290565b8060208092840101518185015201620011c8565b15620011f557565b60405162461bcd60e51b815260206004820152600e60248201526d10dc99585d194c8819985a5b195960921b6044820152606490fdfe6080346200018757601f6200207638819003918201601f19168301916001600160401b038311848410176200018b5780849260a09460405283398101031262000187576200004d816200019f565b906200005c602082016200019f565b916200006b604083016200019f565b606083015160809093015160017f9b779b17422d0df92223018b32b4d1fa46e071723d6817e2486d003becc55f0055936001600160a01b03919083831615620001525782169283156200011c575f8054610100600160a81b03191660089290921b610100600160a81b0316919091179055600180546001600160a01b03199081169094179055600280549093169116179055600355600455620151804204600655604051611ec19081620001b58239f35b60405162461bcd60e51b815260206004820152600e60248201526d496e76616c69642073617264697360901b6044820152606490fd5b60405162461bcd60e51b815260206004820152600d60248201526c125b9d985b1a59081859d95b9d609a1b6044820152606490fd5b5f80fd5b634e487b7160e01b5f52604160045260245ffd5b51906001600160a01b0382168203620001875756fe608080604052600436101561001c575b50361561001a575f80fd5b005b5f3560e01c9081631259a5c81461178457508063133adab6146116f157806313632153146116b957806325ae08021461167c5780632711e26d146115e6578063301e17d4146115c9578063359627e51461154c578063398e2c12146115245780633f4ba83a146114b057806349efe5ae146114395780634d417415146113f45780635c975abb146113d357806367eeba0c146113b65780636c24a76f146113145780636ff1c9bc14611240578063710eb26c146112185780637175a3c21461118f578063735bb1ba146111525780638456cb59146110d757806384a6023214610fb657806393b7ae2914610eb257806398ed9057146109fd578063a15f39e8146109db578063affed0e0146109be578063c4590d3f1461095a578063c9f5b33114610723578063cc9813ae14610410578063d3a7bad3146103ee578063d5da83ea14610358578063f059cf2b1461033b578063f5ff5c7614610310578063f8b2cb4f14610282578063f978fd61146102535763ff74ed631461019e575f61000f565b3461024f57602036600319011261024f576101b761179e565b600154906001600160a01b03808316916101d2338414611a30565b16916101df831515611b00565b81831461021b576001600160a01b03191682176001557f46416cdea2d86d68cb23cc8a5ca09f17293a83b669fa0a5ba49079d575338fcd5f80a3005b60405162461bcd60e51b815260206004820152600c60248201526b53616d65206164647265737360a01b6044820152606490fd5b5f80fd5b3461024f57602036600319011261024f576004355f52600c602052602060ff60405f2054166040519015158152f35b3461024f5760208060031936011261024f576024816001600160a01b036102a761179e565b16604051928380926370a0823160e01b82523060048301525afa908115610305575f916102d8575b50604051908152f35b90508181813d83116102fe575b6102ef8183611904565b8101031261024f5751826102cf565b503d6102e5565b6040513d5f823e3d90fd5b3461024f575f36600319011261024f575f5460405160089190911c6001600160a01b03168152602090f35b3461024f575f36600319011261024f576020600554604051908152f35b3461024f57602036600319011261024f5761037161179e565b60018060a01b0390815f5460081c16331480156103e1575b610392906117f8565b16805f52600860205260405f2060ff1990600182825416179055600960205260405f209081541690557f2beb81302d186467f04cfd3b8eea93007da10ece7066129da967ec8645bbc1ae5f80a2005b5060015482163314610389565b3461024f575f36600319011261024f57602060ff600754166040519015158152f35b3461024f57608036600319011261024f5761042961179e565b6104316117b4565b906044356064359060018060a01b0390815f5460081c1633148015610716575b61045a906117f8565b61046581151561183b565b82151580610709575b156106d1576040516370a0823160e01b815230600482015260209580841694918781602481895afa80156103055784915f916106a0575b50865f52600d895260405f20548082115f14610698576104c491611a6a565b10610653576104d286611cfe565b6104db83611dbb565b610505610513600b546104ed81611886565b600b556040519283918b8301958842918d308a6118a8565b03601f198101835282611904565b519020946105218242611a77565b9260405161010081019381851067ffffffffffffffff86111761063f578989600661062d9482998b6040997fd621b6e9177215e3415852eb57b817df04364ac25a9d6655b20bd009275fb1d79b8b52169b8c83528d8684019081528a84018a815260608501915f8352608086019342855260a08701958652600a60c088019a5f8c5260e089019a5f8c525f5252808e5f20975116906001600160601b0360a01b9182895416178855600188019251169082541617905551600285015551600384015551600483015551600582015501915115159060ff61ff0084549251151560081b1692169061ffff191617179055875f52600d8a52835f20610625848254611a77565b905542611a77565b825191825288820152a4604051908152f35b634e487b7160e01b5f52604160045260245ffd5b60405162461bcd60e51b815260048101889052601e60248201527f496e73756666696369656e7420617661696c61626c652062616c616e636500006044820152606490fd5b50505f6104c4565b809250898092503d83116106ca575b6106b98183611904565b8101031261024f57839051896104a5565b503d6106af565b60405162461bcd60e51b815260206004820152601060248201526f24b73b30b634b210323ab930ba34b7b760811b6044820152606490fd5b5062093a8083111561046e565b5060015482163314610451565b3461024f57604036600319011261024f576004356024359060018060a01b0391825f5460081c163314801561094d575b61075c906117f8565b6107646119ee565b815f52602090600a825260405f20936002850154610783811515611a84565b82156108f75760068601805461079c60ff821615611ac1565b60ff8160081c166108c457600588015442116108905782851161085557928085937f1d74a7889455fa341cf5b14672d378ea2dc99c2dfc8cf4fc68e1f186530f264198999360016108289760ff19161790558460038501556001840190828254165f52600d895261081260405f20918254611a6a565b905561081d85611e5f565b541691541690611953565b604051908152a260017f9b779b17422d0df92223018b32b4d1fa46e071723d6817e2486d003becc55f0055005b60405162461bcd60e51b8152600481018790526013602482015272105b5bdd5b9d08195e18d959591cc81a1bdb19606a1b6044820152606490fd5b60405162461bcd60e51b815260048101879052600c60248201526b121bdb1908195e1c1a5c995960a21b6044820152606490fd5b60405162461bcd60e51b815260048101879052600b60248201526a121bdb19081d9bda59195960aa1b6044820152606490fd5b60405162461bcd60e51b815260048101859052602860248201527f4361707475726520616d6f756e74206d7573742062652067726561746572207460448201526768616e207a65726f60c01b6064820152608490fd5b5060015483163314610753565b3461024f57604036600319011261024f577f4d4981437d0211f9e6843eb024d9ada1fa3a99514d4343d4aece106dd11524bb60406004356024356109a960018060a01b03600154163314611a30565b816003558060045582519182526020820152a1005b3461024f575f36600319011261024f576020600b54604051908152f35b3461024f575f36600319011261024f5760206109f5611b3e565b604051908152f35b3461024f5760c036600319011261024f57610a1661179e565b610a1e6117b4565b60643567ffffffffffffffff811161024f57610a3e9036906004016117ca565b919060a43567ffffffffffffffff811161024f57610a609036906004016117ca565b610a7860018060a09894981b03600154163314611a30565b610a806119ee565b610a886119d1565b60843595864211610e7957600b546040519760208901913060601b83526001600160601b0319808760601b1660348c01528860601b1660488b0152604435605c8b0152607c8a0152609c8901524660bc89015260bc88528760e081011067ffffffffffffffff60e08a01111761063f5760e088016040528751902096875f52600c60205260ff60405f205416610e3757505f549160405160208101907f19457468657265756d205369676e6564204d6573736167653a0a333200000000825289603c820152603c8152606081019181831067ffffffffffffffff84111761063f5760419083604052825190209303610df6575050601b60408301355f1a148015610de6575b15610da1577f7fffffffffffffffffffffffffffffff5d576e7357a4501ddfe92f46681b20a0602083013511610d5c5760805f91602080946040519283526040810135851a82840152803560408401520135606082015282805260015afa15610305575f516001600160a01b0360089290921c8216911603610d1757846020955f52600c865260405f20600160ff1982541617905560018060a01b035f5460081c16907fb151f716093c102b3c8057fec0fbb2817276a60bafa5abe3b6025352cc0e40125f80a3610c5d83611cfe565b6001600160a01b038116907f53bdfd21c5b54343ba3e334d346a58110e2b118cc902663f0bf5b3fc9458f42090610c976044358685611953565b610505610cc5600b5492610caa84611886565b600b556040519283918b83019542918b60443591308a6118a8565b519020604051909586956001600160a01b0316948291610ce89160443584611926565b0390a460017f9b779b17422d0df92223018b32b4d1fa46e071723d6817e2486d003becc55f0055604051908152f35b60405162461bcd60e51b815260206004820152601760248201527f496e76616c6964206167656e74207369676e61747572650000000000000000006044820152606490fd5b60405162461bcd60e51b815260206004820152601960248201527f496e76616c6964207369676e617475726520732076616c7565000000000000006044820152606490fd5b60405162461bcd60e51b815260206004820152601960248201527f496e76616c6964207369676e617475726520762076616c7565000000000000006044820152606490fd5b50601c60408301355f1a14610b8d565b907f496e76616c6964207369676e6174757265206c656e677468000000000000000060a460649362461bcd60e51b8452602085820152601860848201520152fd5b60e060649162461bcd60e51b82820152602060e482015260166101048201527514da59db985d1d5c9948185b1c9958591e481d5cd95960521b61012482015201fd5b60405162461bcd60e51b815260206004820152601160248201527014da59db985d1d5c9948195e1c1a5c9959607a1b6044820152606490fd5b3461024f57602036600319011261024f5760043560018060a01b03805f5460081c1633148015610fa9575b610ee6906117f8565b815f52600a60205260405f2090600282015491610f04831515611a84565b6006810190815491610f1960ff841615611ac1565b60ff8360081c16610f735761010060019361ff0019161790550154165f52600d602052610f4b60405f20918254611a6a565b90557f1980f9aba72e8af444a5bce530bd797caf302101dad83c76a3e528839e6787355f80a2005b60405162461bcd60e51b815260206004820152600e60248201526d105b1c9958591e481d9bda59195960921b6044820152606490fd5b5060015481163314610edd565b3461024f57608036600319011261024f57610fcf61179e565b610fd76117b4565b6064359060443567ffffffffffffffff831161024f5760209361101f7f53bdfd21c5b54343ba3e334d346a58110e2b118cc902663f0bf5b3fc9458f4209436906004016117ca565b94909360018060a01b0390815f5460081c16331480156110ca575b611043906117f8565b61104b6119ee565b6110536119d1565b61105e85151561183b565b61106781611cfe565b61107085611dbb565b61107985611e5f565b610ce88285169461108b878488611953565b6105056110b6600b549261109e84611886565b600b556040519283918e8301958c894293308a6118a8565b519020978897604051948594169784611926565b506001548216331461103a565b3461024f575f36600319011261024f5760015f5461110a828060a01b03808360081c163314908115611145575b506117f8565b6111126119d1565b60ff1916175f557f62e78cea01bee320cd4e420270b5ea74000d11b0c9f74754ebdbfc544b05a2586020604051338152a1005b9050835416331484611104565b3461024f57602036600319011261024f576001600160a01b0361117361179e565b165f526009602052602060ff60405f2054166040519015158152f35b3461024f57602036600319011261024f576004355f52600a60205261010060405f2060ff60018060a01b0391828154169260018201541690600281015460038201546004830154916006600585015494015494604051978852602088015260408701526060860152608085015260a0840152818116151560c084015260081c16151560e0820152f35b3461024f575f36600319011261024f576002546040516001600160a01b039091168152602090f35b3461024f5760208060031936011261024f5761125a61179e565b6002546001600160a01b039081169291338490036112df5716916040516370a0823160e01b81523060048201528281602481875afa928315610305575f936112af575b5050816112a657005b61001a92611953565b9080929350813d83116112d8575b6112c78183611904565b8101031261024f575190838061129d565b503d6112bd565b60405162461bcd60e51b815260048101849052600d60248201526c4f6e6c79207265636f7665727960981b6044820152606490fd5b3461024f5760208060031936011261024f576001600160a01b0361133661179e565b6040516370a0823160e01b815230600482015291168282602481845afa918215610305575f92611387575b505f52600d825260405f20548082115f1461137f576109f591611a6a565b50505f6109f5565b9091508281813d83116113af575b61139f8183611904565b8101031261024f57519083611361565b503d611395565b3461024f575f36600319011261024f576020600454604051908152f35b3461024f575f36600319011261024f57602060ff5f54166040519015158152f35b3461024f57602036600319011261024f5760043580151580910361024f5761142760018060a01b03600154163314611a30565b60ff8019600754169116176007555f80f35b3461024f57602036600319011261024f5761145261179e565b6001546001600160a01b03919061146c9083163314611a30565b16611478811515611b00565b600280546001600160a01b031916821790557f33ab58932e5fab0ba732cd2b11abbb48d7949bbaef42472e37f95f8f55376b405f80a2005b3461024f575f36600319011261024f576114d560018060a01b03600154163314611a30565b5f5460ff8116156115125760ff19165f557f5db9ee0a495bf2e6ff9c91a7834c1ba4fdd244a5e8aa4e537bd38aeae4b073aa6020604051338152a1005b604051638dfc202b60e01b8152600490fd5b3461024f575f36600319011261024f576001546040516001600160a01b039091168152602090f35b3461024f57604036600319011261024f5761157161156861179e565b60243590611b74565b60405191151582528160206040818301528251908160408401525f935b8285106115b0575050606092505f838284010152601f80199101168101030190f35b848101820151868601606001529381019385935061158e565b3461024f575f36600319011261024f576020600354604051908152f35b3461024f57602036600319011261024f576115ff61179e565b60018060a01b0390815f5460081c163314801561166f575b611620906117f8565b16805f52600960205260405f2060ff1990600182825416179055600860205260405f209081541690557fb2847dbccb12294f14d08cb3dc2810124fb84b12ff1039d27b6ed9845c7b3d715f80a2005b5060015482163314611617565b3461024f57602036600319011261024f576001600160a01b0361169d61179e565b165f526008602052602060ff60405f2054166040519015158152f35b3461024f57602036600319011261024f576001600160a01b036116da61179e565b165f52600d602052602060405f2054604051908152f35b3461024f57602036600319011261024f5761170a61179e565b60018060a01b0390815f5460081c1633148015611777575b61172b906117f8565b16805f52600860205260405f2060ff1990818154169055600960205260405f209081541690557fae4bdf5adabafca6721399496d24fe50fb6564effcb386fbae92de33540763bc5f80a2005b5060015482163314611722565b3461024f575f36600319011261024f576020906006548152f35b600435906001600160a01b038216820361024f57565b602435906001600160a01b038216820361024f57565b9181601f8401121561024f5782359167ffffffffffffffff831161024f576020838186019501011161024f57565b156117ff57565b60405162461bcd60e51b81526020600482015260146024820152734f6e6c79206167656e74206f722053617264697360601b6044820152606490fd5b1561184257565b606460405162461bcd60e51b815260206004820152602060248201527f416d6f756e74206d7573742062652067726561746572207468616e207a65726f6044820152fd5b5f1981146118945760010190565b634e487b7160e01b5f52601160045260245ffd5b9492609c969492916001600160601b03199283809260601b16885260601b16601487015260601b166028850152603c840152605c830152607c8201520190565b6040810190811067ffffffffffffffff82111761063f57604052565b90601f8019910116810190811067ffffffffffffffff82111761063f57604052565b91926060938192845260406020850152816040850152848401375f828201840152601f01601f1916010190565b60405163a9059cbb60e01b5f9081526001600160a01b039384166004526024949094529260209060448180855af160015f51148116156119b2575b836040521561199c57505050565b635274afe760e01b835216600482015260249150fd5b60018115166119c857813b15153d15161661198e565b833d5f823e3d90fd5b60ff5f54166119dc57565b60405163d93c066560e01b8152600490fd5b7f9b779b17422d0df92223018b32b4d1fa46e071723d6817e2486d003becc55f006002815414611a1e5760029055565b604051633ee5aeb560e01b8152600490fd5b15611a3757565b60405162461bcd60e51b815260206004820152600b60248201526a4f6e6c792053617264697360a81b6044820152606490fd5b9190820391821161189457565b9190820180921161189457565b15611a8b57565b60405162461bcd60e51b815260206004820152600e60248201526d121bdb19081b9bdd08199bdd5b9960921b6044820152606490fd5b15611ac857565b60405162461bcd60e51b815260206004820152601060248201526f105b1c9958591e4818d85c1d1d5c995960821b6044820152606490fd5b15611b0757565b60405162461bcd60e51b815260206004820152600f60248201526e496e76616c6964206164647265737360881b6044820152606490fd5b60065462015180420411611b6e576004546005545f9181811115611b6957611b669250611a6a565b90565b505090565b60045490565b919060ff6007541680611cdc575b611c9f575f9260018060a01b03168352600960205260409060ff8285205416611c75576003548111611c3d57611bc890600654620151804204115f14611c355784611a77565b60045410611c0857600192815191602083019083821067ffffffffffffffff831117611bf45752815290565b634e487b7160e01b83526041600452602483fd5b51611c12816118e8565b6013815272115e18d959591cc819185a5b1e481b1a5b5a5d606a1b602082015290565b600554611a77565b5051611c48816118e8565b601d81527f45786365656473207065722d7472616e73616374696f6e206c696d6974000000602082015290565b5051611c80816118e8565b600f81526e13595c98da185b9d0819195b9a5959608a1b602082015290565b506040515f9250611caf816118e8565b601981527f4d65726368616e74206e6f7420696e20616c6c6f776c69737400000000000000602082015290565b506001600160a01b0383165f9081526008602052604090205460ff1615611b82565b60ff60075416611d60575b6001600160a01b03165f9081526009602052604090205460ff16611d2957565b60405162461bcd60e51b815260206004820152600f60248201526e13595c98da185b9d0819195b9a5959608a1b6044820152606490fd5b6001600160a01b0381165f9081526008602052604090205460ff16611d095760405162461bcd60e51b815260206004820152601460248201527313595c98da185b9d081b9bdd08185b1b1bddd95960621b6044820152606490fd5b6003548111611e2357611dde90600654620151804204115f14611c35575f611a77565b60045410611de857565b60405162461bcd60e51b8152602060048201526013602482015272115e18d959591cc819185a5b1e481b1a5b5a5d606a1b6044820152606490fd5b60405162461bcd60e51b8152602060048201526014602482015273115e18d959591cc81c195c8b5d1e081b1a5b5a5d60621b6044820152606490fd5b6201518042049060065482115f14611e7957600555600655565b611e869150600554611a77565b60055556fea26469706673582212206935bfc52136610e1951bced86ea0e94a0b8f8ed349d56e66151e4c2741bc6eb64736f6c63430008140033a2646970667358221220d756f81f92c04a10c231895b0035738f4ab9c0f9b831e4452d33cbdf5e0a70c364736f6c63430008140033","linkReferences":{}},"methodIdentifiers":{"agentWallets(address,uint256)":"2c348f12","allWallets(uint256)":"8cf8350f","createWallet(address)":"b054a9e8","createWalletDeterministic(address,bytes32)":"12fc0096","createWalletWithLimits(address,uint256,uint256)":"2a9d0178","defaultDailyLimit()":"c76b0888","defaultLimitPerTx()":"3cbe8085","defaultRecoveryAddress()":"ccec4d8d","deploymentFee()":"f2cff57f","getAgentWalletCount(address)":"3a074788","getAgentWallets(address)":"b28d89c3","getTotalWallets()":"f5f50eb1","isValidWallet(address)":"439a3012","owner()":"8da5cb5b","pause()":"8456cb59","paused()":"5c975abb","predictWalletAddress(address,bytes32)":"1f264778","renounceOwnership()":"715018a6","setDefaultLimits(uint256,uint256)":"58437320","setDefaultRecoveryAddress(address)":"d8a8bd3f","setDeploymentFee(uint256)":"d002462b","transferOwnership(address)":"f2fde38b","unpause()":"3f4ba83a","verifyWallet(address)":"fc399c79","walletToAgent(address)":"e16abb17","withdrawFees(address)":"164e68de"},"id":38}