{"abi":[{"type":"constructor","inputs":[{"name":"_arbiter","type":"address","internalType":"address"},{"name":"_feeBps","type":"uint256","internalType":"uint256"},{"name":"_minAmount","type":"uint256","internalType":"uint256"},{"name":"_maxDeadlineDays","type":"uint256","internalType":"uint256"}],"stateMutability":"nonpayable"},{"type":"function","name":"approveRelease","inputs":[{"name":"escrowId","type":"uint256","internalType":"uint256"}],"outputs":[],"stateMutability":"nonpayable"},{"type":"function","name":"arbiter","inputs":[],"outputs":[{"name":"","type":"address","internalType":"address"}],"stateMutability":"view"},{"type":"function","name":"cancelEscrow","inputs":[{"name":"escrowId","type":"uint256","internalType":"uint256"}],"outputs":[],"stateMutability":"nonpayable"},{"type":"function","name":"completeMilestone","inputs":[{"name":"escrowId","type":"uint256","internalType":"uint256"},{"name":"milestoneIndex","type":"uint256","internalType":"uint256"}],"outputs":[],"stateMutability":"nonpayable"},{"type":"function","name":"confirmDelivery","inputs":[{"name":"escrowId","type":"uint256","internalType":"uint256"}],"outputs":[],"stateMutability":"nonpayable"},{"type":"function","name":"createEscrow","inputs":[{"name":"seller","type":"address","internalType":"address"},{"name":"token","type":"address","internalType":"address"},{"name":"amount","type":"uint256","internalType":"uint256"},{"name":"deadline","type":"uint256","internalType":"uint256"},{"name":"conditionHash","type":"bytes32","internalType":"bytes32"},{"name":"description","type":"string","internalType":"string"}],"outputs":[{"name":"escrowId","type":"uint256","internalType":"uint256"}],"stateMutability":"nonpayable"},{"type":"function","name":"createEscrowWithMilestones","inputs":[{"name":"seller","type":"address","internalType":"address"},{"name":"token","type":"address","internalType":"address"},{"name":"milestoneAmounts","type":"uint256[]","internalType":"uint256[]"},{"name":"deadline","type":"uint256","internalType":"uint256"},{"name":"conditionHash","type":"bytes32","internalType":"bytes32"},{"name":"description","type":"string","internalType":"string"}],"outputs":[{"name":"escrowId","type":"uint256","internalType":"uint256"}],"stateMutability":"nonpayable"},{"type":"function","name":"escrowCounter","inputs":[],"outputs":[{"name":"","type":"uint256","internalType":"uint256"}],"stateMutability":"view"},{"type":"function","name":"escrows","inputs":[{"name":"","type":"uint256","internalType":"uint256"}],"outputs":[{"name":"buyer","type":"address","internalType":"address"},{"name":"seller","type":"address","internalType":"address"},{"name":"token","type":"address","internalType":"address"},{"name":"amount","type":"uint256","internalType":"uint256"},{"name":"fee","type":"uint256","internalType":"uint256"},{"name":"createdAt","type":"uint256","internalType":"uint256"},{"name":"deadline","type":"uint256","internalType":"uint256"},{"name":"state","type":"uint8","internalType":"enum SardisEscrow.EscrowState"},{"name":"conditionHash","type":"bytes32","internalType":"bytes32"},{"name":"buyerApproved","type":"bool","internalType":"bool"},{"name":"sellerConfirmed","type":"bool","internalType":"bool"},{"name":"description","type":"string","internalType":"string"}],"stateMutability":"view"},{"type":"function","name":"feeBps","inputs":[],"outputs":[{"name":"","type":"uint256","internalType":"uint256"}],"stateMutability":"view"},{"type":"function","name":"fundEscrow","inputs":[{"name":"escrowId","type":"uint256","internalType":"uint256"}],"outputs":[],"stateMutability":"nonpayable"},{"type":"function","name":"getEscrow","inputs":[{"name":"escrowId","type":"uint256","internalType":"uint256"}],"outputs":[{"name":"","type":"tuple","internalType":"struct SardisEscrow.Escrow","components":[{"name":"buyer","type":"address","internalType":"address"},{"name":"seller","type":"address","internalType":"address"},{"name":"token","type":"address","internalType":"address"},{"name":"amount","type":"uint256","internalType":"uint256"},{"name":"fee","type":"uint256","internalType":"uint256"},{"name":"createdAt","type":"uint256","internalType":"uint256"},{"name":"deadline","type":"uint256","internalType":"uint256"},{"name":"state","type":"uint8","internalType":"enum SardisEscrow.EscrowState"},{"name":"conditionHash","type":"bytes32","internalType":"bytes32"},{"name":"buyerApproved","type":"bool","internalType":"bool"},{"name":"sellerConfirmed","type":"bool","internalType":"bool"},{"name":"description","type":"string","internalType":"string"}]}],"stateMutability":"view"},{"type":"function","name":"getEscrowCount","inputs":[],"outputs":[{"name":"","type":"uint256","internalType":"uint256"}],"stateMutability":"view"},{"type":"function","name":"getMilestones","inputs":[{"name":"escrowId","type":"uint256","internalType":"uint256"}],"outputs":[{"name":"","type":"tuple[]","internalType":"struct SardisEscrow.Milestone[]","components":[{"name":"amount","type":"uint256","internalType":"uint256"},{"name":"completed","type":"bool","internalType":"bool"},{"name":"released","type":"bool","internalType":"bool"}]}],"stateMutability":"view"},{"type":"function","name":"hasReleaseCondition","inputs":[{"name":"escrowId","type":"uint256","internalType":"uint256"}],"outputs":[{"name":"","type":"bool","internalType":"bool"}],"stateMutability":"view"},{"type":"function","name":"maxDeadlineDays","inputs":[],"outputs":[{"name":"","type":"uint256","internalType":"uint256"}],"stateMutability":"view"},{"type":"function","name":"milestones","inputs":[{"name":"","type":"uint256","internalType":"uint256"},{"name":"","type":"uint256","internalType":"uint256"}],"outputs":[{"name":"amount","type":"uint256","internalType":"uint256"},{"name":"completed","type":"bool","internalType":"bool"},{"name":"released","type":"bool","internalType":"bool"}],"stateMutability":"view"},{"type":"function","name":"minAmount","inputs":[],"outputs":[{"name":"","type":"uint256","internalType":"uint256"}],"stateMutability":"view"},{"type":"function","name":"owner","inputs":[],"outputs":[{"name":"","type":"address","internalType":"address"}],"stateMutability":"view"},{"type":"function","name":"raiseDispute","inputs":[{"name":"escrowId","type":"uint256","internalType":"uint256"}],"outputs":[],"stateMutability":"nonpayable"},{"type":"function","name":"refund","inputs":[{"name":"escrowId","type":"uint256","internalType":"uint256"}],"outputs":[],"stateMutability":"nonpayable"},{"type":"function","name":"release","inputs":[{"name":"escrowId","type":"uint256","internalType":"uint256"}],"outputs":[],"stateMutability":"nonpayable"},{"type":"function","name":"releaseMilestone","inputs":[{"name":"escrowId","type":"uint256","internalType":"uint256"},{"name":"milestoneIndex","type":"uint256","internalType":"uint256"}],"outputs":[],"stateMutability":"nonpayable"},{"type":"function","name":"releaseWithCondition","inputs":[{"name":"escrowId","type":"uint256","internalType":"uint256"},{"name":"conditionData","type":"bytes","internalType":"bytes"}],"outputs":[],"stateMutability":"nonpayable"},{"type":"function","name":"renounceOwnership","inputs":[],"outputs":[],"stateMutability":"nonpayable"},{"type":"function","name":"resolveDispute","inputs":[{"name":"escrowId","type":"uint256","internalType":"uint256"},{"name":"buyerPercent","type":"uint256","internalType":"uint256"}],"outputs":[],"stateMutability":"nonpayable"},{"type":"function","name":"setArbiter","inputs":[{"name":"_arbiter","type":"address","internalType":"address"}],"outputs":[],"stateMutability":"nonpayable"},{"type":"function","name":"setFeeBps","inputs":[{"name":"_feeBps","type":"uint256","internalType":"uint256"}],"outputs":[],"stateMutability":"nonpayable"},{"type":"function","name":"setMinAmount","inputs":[{"name":"_minAmount","type":"uint256","internalType":"uint256"}],"outputs":[],"stateMutability":"nonpayable"},{"type":"function","name":"transferOwnership","inputs":[{"name":"newOwner","type":"address","internalType":"address"}],"outputs":[],"stateMutability":"nonpayable"},{"type":"function","name":"verifyCondition","inputs":[{"name":"escrowId","type":"uint256","internalType":"uint256"},{"name":"conditionData","type":"bytes","internalType":"bytes"}],"outputs":[{"name":"valid","type":"bool","internalType":"bool"},{"name":"reason","type":"string","internalType":"string"}],"stateMutability":"view"},{"type":"event","name":"ConditionVerified","inputs":[{"name":"escrowId","type":"uint256","indexed":true,"internalType":"uint256"},{"name":"conditionHash","type":"bytes32","indexed":true,"internalType":"bytes32"}],"anonymous":false},{"type":"event","name":"DeliveryConfirmed","inputs":[{"name":"escrowId","type":"uint256","indexed":true,"internalType":"uint256"}],"anonymous":false},{"type":"event","name":"DisputeRaised","inputs":[{"name":"escrowId","type":"uint256","indexed":true,"internalType":"uint256"},{"name":"by","type":"address","indexed":true,"internalType":"address"}],"anonymous":false},{"type":"event","name":"DisputeResolved","inputs":[{"name":"escrowId","type":"uint256","indexed":true,"internalType":"uint256"},{"name":"buyerAmount","type":"uint256","indexed":false,"internalType":"uint256"},{"name":"sellerAmount","type":"uint256","indexed":false,"internalType":"uint256"}],"anonymous":false},{"type":"event","name":"EscrowCancelled","inputs":[{"name":"escrowId","type":"uint256","indexed":true,"internalType":"uint256"}],"anonymous":false},{"type":"event","name":"EscrowCreated","inputs":[{"name":"escrowId","type":"uint256","indexed":true,"internalType":"uint256"},{"name":"buyer","type":"address","indexed":true,"internalType":"address"},{"name":"seller","type":"address","indexed":true,"internalType":"address"},{"name":"token","type":"address","indexed":false,"internalType":"address"},{"name":"amount","type":"uint256","indexed":false,"internalType":"uint256"}],"anonymous":false},{"type":"event","name":"EscrowFunded","inputs":[{"name":"escrowId","type":"uint256","indexed":true,"internalType":"uint256"}],"anonymous":false},{"type":"event","name":"EscrowRefunded","inputs":[{"name":"escrowId","type":"uint256","indexed":true,"internalType":"uint256"}],"anonymous":false},{"type":"event","name":"EscrowReleased","inputs":[{"name":"escrowId","type":"uint256","indexed":true,"internalType":"uint256"},{"name":"amountToSeller","type":"uint256","indexed":false,"internalType":"uint256"},{"name":"fee","type":"uint256","indexed":false,"internalType":"uint256"}],"anonymous":false},{"type":"event","name":"MilestoneCompleted","inputs":[{"name":"escrowId","type":"uint256","indexed":true,"internalType":"uint256"},{"name":"milestoneIndex","type":"uint256","indexed":true,"internalType":"uint256"}],"anonymous":false},{"type":"event","name":"MilestoneReleased","inputs":[{"name":"escrowId","type":"uint256","indexed":true,"internalType":"uint256"},{"name":"milestoneIndex","type":"uint256","indexed":true,"internalType":"uint256"}],"anonymous":false},{"type":"event","name":"OwnershipTransferred","inputs":[{"name":"previousOwner","type":"address","indexed":true,"internalType":"address"},{"name":"newOwner","type":"address","indexed":true,"internalType":"address"}],"anonymous":false},{"type":"event","name":"ReleaseApproved","inputs":[{"name":"escrowId","type":"uint256","indexed":true,"internalType":"uint256"}],"anonymous":false},{"type":"event","name":"ReleasedWithCondition","inputs":[{"name":"escrowId","type":"uint256","indexed":true,"internalType":"uint256"},{"name":"conditionHash","type":"bytes32","indexed":true,"internalType":"bytes32"}],"anonymous":false},{"type":"error","name":"OwnableInvalidOwner","inputs":[{"name":"owner","type":"address","internalType":"address"}]},{"type":"error","name":"OwnableUnauthorizedAccount","inputs":[{"name":"account","type":"address","internalType":"address"}]},{"type":"error","name":"ReentrancyGuardReentrantCall","inputs":[]},{"type":"error","name":"SafeERC20FailedOperation","inputs":[{"name":"token","type":"address","internalType":"address"}]}],"bytecode":{"object":"0x6080346200018557601f6200259938819003918201601f191683019291906001600160401b0384118385101762000189578160809284926040968752833981010312620001855780516001600160a01b0391908281169081900362000185576020820151906060858401519301519360017f9b779b17422d0df92223018b32b4d1fa46e071723d6817e2486d003becc55f005533156200016e575f549060018060a01b03199133838216175f558751913391167f8be0079c531659141344cd1fd0a4f28419497f9722a3daafe3b4186f6b6457e05f80a382156200013a57506101f4831162000107576004541617600455600555600655600755516123fb90816200019e8239f35b855162461bcd60e51b815260206004820152600c60248201526b08ccaca40e8dede40d0d2ced60a31b6044820152606490fd5b62461bcd60e51b815260206004820152600f60248201526e24b73b30b634b21030b93134ba32b960891b6044820152606490fd5b8551631e4fbdf760e01b81525f6004820152602490fd5b5f80fd5b634e487b7160e01b5f52604160045260245ffdfe6080604052600480361015610012575f80fd5b5f90813560e01c8063012f52ee146117e957806316b15135146109865780631bd2cea1146117325780631c376c63146116d95780631c9c088a1461166057806324a9d85314611642578063278ecde1146114a757806328e1a36c146114895780633229f9211461142157806337bdc99b1461135f57806342c549c01461124c578063715018a6146111f257806372c27b62146111925780637d19e59614610fa75780637eedcd0414610f79578063897b063714610f585780638da5cb5b14610f31578063981a473514610cb45780639b2cb5d814610c96578063a5c1674e14610b96578063aad9f56914610b5b578063bdc84ac3146109a4578063c7ceafea14610986578063c9c31af514610832578063dbaf0910146105ec578063e01824361461054f578063f2fde38b146104c9578063f326206b146103db578063fbadf9a814610252578063fd84cb971461019b5763fe25e00a14610171575f80fd5b34610197578160031936011261019757546040516001600160a01b039091168152602090f35b5080fd5b50346101975760203660031901126101975780359081835260026020526101d260018060a01b0360016040862001541633146120f8565b818352600260205260ff60076040852001541690600782101561023f575060016101fc911461208d565b808252600260205260408220600901805461ff0019166101001790557f375b4005eeae25d0e37d56e1b3841d3bb394b277efa2548de3293f5dcb7a34938280a280f35b634e487b7160e01b845260219052602483fd5b5090346103d85761026236611b23565b828452600260205260ff60076040862001541660078110156103c557600161028a911461208d565b6102926120c9565b8284526002602052604084208054336001600160a01b03918216149081156103b4575b81156103a7575b5015610372576008015480928115928315610355575b5050501561031d579061030991817f6673465f50e90b338136189119fa8d2c52c9cf02a14d27d1a076eca68bf04fa48580a361224e565b60015f805160206123a68339815191525580f35b60405162461bcd60e51b8152602081860152601160248201527010dbdb991a5d1a5bdb881b9bdd081b595d607a1b6044820152606490fd5b6103629293503691611bd4565b6020815191012014815f806102d2565b60405162461bcd60e51b8152602081880152600e60248201526d139bdd08185d5d1a1bdc9a5e995960921b6044820152606490fd5b905086541633145f6102bc565b8091506001830154163314906102b5565b634e487b7160e01b855260218652602485fd5b80fd5b5034610197576103ea36611a82565b91818452600260205261040d60018060a01b0360016040872001541633146120f8565b818452600360205261042460408520548410612132565b818452600360205260ff600161043d8560408820611a9c565b5001541661049157508083526003602052600161045d8360408620611a9c565b5001805460ff191660011790557f1b7218c0ac23ea9cbe4df603d2b340fbf469a115b73ea3d11460727f445d6be18380a380f35b60649060206040519162461bcd60e51b83528201526011602482015270105b1c9958591e4818dbdb5c1b195d1959607a1b6044820152fd5b5034610197576020366003190112610197576104e3611ac9565b6104eb611b57565b6001600160a01b03908116918215610537575082546001600160a01b0319811683178455167f8be0079c531659141344cd1fd0a4f28419497f9722a3daafe3b4186f6b6457e08380a380f35b604051631e4fbdf760e01b8152908101849052602490fd5b503461019757602036600319011261019757803590818352600260205261058360018060a01b036040852054163314612054565b818352600260205260ff60076040852001541690600782101561023f57506105ab901561208d565b808252600260205260408220600701805460ff191660061790557f0d977c6b1a383ac5ce532b4a668d0ef9ad38478e1a5ff28abb221f4b682b26438280a280f35b5034610197576105fb36611a82565b8184939293526020916002835260018060a01b0392610621846040882054163314612054565b8486526002815260ff600760408820015416600781101561081f576001610648911461208d565b6106506120c9565b8486526003815261066660408720548410612132565b8486526003815261067a8360408820611a9c565b509260018401805460ff8116156107db5760ff8160081c166107a4576101009061ff0019161790558587526002825260408720935494838501936106bf855488611bc1565b9060038701978854918215610791575090836106ff9493926106f160028b01918b846001818654169201541690612172565b54169104918a541690612172565b857f9e069181c12760c2cd0078ed4facdbe1f3614543b0fbff5dbcac3cbc61a0b64e8880a361072d856121f0565b610747575b8560015f805160206123a68339815191525580f35b7f3f324d125e471a3087ea47eb7b28f36f262807b16344d6ed0883a748c7386ced93600760409401600260ff19825416179055549154908351928352820152a25f80808080610732565b634e487b7160e01b8c526012905260248bfd5b60405162461bcd60e51b8152808601859052601060248201526f105b1c9958591e481c995b19585cd95960821b6044820152606490fd5b60405162461bcd60e51b8152808601859052601760248201527f4d696c6573746f6e65206e6f7420636f6d706c657465640000000000000000006044820152606490fd5b634e487b7160e01b875260218352602487fd5b503461019757602036600319011261019757803590818352600260205260018060a01b03610867816040862054163314612054565b828452600260205260ff60076040862001541660078110156109735761088d901561208d565b6108956120c9565b828452600260205260408420916108b460038401548285015490611bb4565b9160028401541690604051926323b872dd60e01b87523382523060245260445260208660648180865af16001875114811615610954575b83604052866060521561094157505050600701805460ff191660011790557f3b4f5a74452cddb80ae5a0d279eb7db6afd5e556e72ca2883016b1da7c9d21168280a260015f805160206123a68339815191525580f35b635274afe760e01b835282015260249150fd5b600181151661096a57823b15153d1516166108eb565b833d88823e3d90fd5b634e487b7160e01b855260218352602485fd5b82346103d857806003193601126103d8576020600154604051908152f35b5090346103d8576109b436611a82565b83546001600160a01b03919082163303610b2857828452600260205260ff60076040862001541660078110156103c55760036109f0911461208d565b6109f86120c9565b60648111610aef57828452600260205260408420916064610a1e60038501549384611bc1565b049283830392808411610adc57849282897f959dc01840aa516bf9407cffa45326c7b6821c48feff7b91eb0c743c8f460fd697610a8694600760409997018360ff1982541617905581610ac2575b03610aa5575b82600283015416928a541691015491612172565b82519182526020820152a260015f805160206123a68339815191525580f35b610abd85846002850154168560018601541690612172565b610a72565b610ad782866002870154168787541690612172565b610a6c565b634e487b7160e01b875260118852602487fd5b60405162461bcd60e51b81526020818701526012602482015271496e76616c69642070657263656e7461676560701b6044820152606490fd5b60405162461bcd60e51b8152602081870152600c60248201526b27b7363c9030b93134ba32b960a11b6044820152606490fd5b82346103d857610b73610b6d36611b23565b916122d7565b90610b9260405192839215158352604060208401526040830190611a44565b0390f35b503461019757602036600319011261019757803590818352600260205260ff6007604085200154166007811015610c83576001610bd3911461208d565b8183526002602052604083208054909190336001600160a01b0391821614908115610c73575b5015610c375750600701805460ff1916600317905533907f84a477df8a28a4276ca6dee4458a06c3015f30c477d9c949ede4e13ff8a552b48380a380f35b60649060206040519162461bcd60e51b835282015260156024820152744e6f74206120706172747920746f20657363726f7760581b6044820152fd5b905060018301541633145f610bf9565b634e487b7160e01b845260218252602484fd5b82346103d857806003193601126103d8576020600654604051908152f35b5090346103d85760c03660031901126103d857610ccf611ac9565b91610cd8611adf565b92604492833567ffffffffffffffff95868211610f2d5736602383011215610f2d578185013593878511610f2957602497888401938936918860051b010111610f255760a435908111610f2557610d329036908801611af5565b9290918615610ef35760148711610ebb5785865b888110610e4a5750610d65959697989950608435926064359233611c1a565b93825b848110610d7a57602086604051908152f35b8584526020600381526040852090610d93838887611ba4565b359060405191610da2836118f7565b82528101918683526040820191878352815468010000000000000000811015610e3857610dd6906001938482018155611a9c565b919091610e2757610e22959492610e1d9492610e06925181550192511515839060ff801983541691151516179055565b51815461ff00191690151560081b61ff0016179055565b611b82565b610d68565b634e487b7160e01b89528887528b89fd5b634e487b7160e01b8952604187528b89fd5b90610e56828a89611ba4565b3515610e8057610e75610e7b91610e6e848c8b611ba4565b3590611bb4565b91611b82565b610d46565b5060405162461bcd60e51b81526020818b01526015818d01527416995c9bc81b5a5b195cdd1bdb9948185b5bdd5b9d605a1b818c0152606490fd5b60405162461bcd60e51b81526020818a01526013818c015272546f6f206d616e79206d696c6573746f6e657360681b818b0152606490fd5b60405162461bcd60e51b81526020818a0152600d818c01526c4e6f206d696c6573746f6e657360981b818b0152606490fd5b8480fd5b8380fd5b8280fd5b82346103d857806003193601126103d857546040516001600160a01b039091168152602090f35b503461019757602036600319011261019757610f72611b57565b3560065580f35b5034610197576020366003190112610197576040602092600892358152600284522001541515604051908152f35b5090346103d85760203660031901126103d8576060610160604051610fcb81611927565b83815283602082015283604082015283838201528360808201528360a08201528360c08201528360e08201528361010082015283610120820152836101408201520152813581526002602052604081206040519161102883611927565b81546001600160a01b039081168452600183015481166020850152600283015416604084015260038201546060840152838201546080840152600582015460a0840152600682015460c084015260078083015460ff16919082101561117f57610160846110c6600a868660e0850152600881015461010085015260ff6009820154818116151561012087015260081c16151561014085015201611982565b82820152610b926040519283926020845260018060a01b03815116602085015260018060a01b03602082015116604085015260018060a01b03604082015116606085015260608101516080850152608081015160a085015260a081015160c085015260c081015160e085015261114560e0820151610100860190611a23565b61010081015161012085015261012081015115156101408501526101408101511515828501520151610180808401526101a0830190611a44565b634e487b7160e01b815260218552602490fd5b5034610197576020366003190112610197578035906111af611b57565b6101f482116111bf575060055580f35b60649060206040519162461bcd60e51b8352820152600c60248201526b08ccaca40e8dede40d0d2ced60a31b6044820152fd5b82346103d857806003193601126103d85761120b611b57565b80546001600160a01b03198116825581906001600160a01b03167f8be0079c531659141344cd1fd0a4f28419497f9722a3daafe3b4186f6b6457e08280a380f35b5090346103d85760209182600319360112610197578035825260038352604082209283549167ffffffffffffffff831161134c575091929060405190611297848260051b0183611960565b8082528382018093865284862086915b83831061130357505050506040519280840191818552518092526040840192945b8281106112d55784840385f35b85518051855280830151151585840152604090810151151590850152948101946060909301926001016112c8565b60028760019260409a9997989a5161131a816118f7565b855481528486015460ff9081811615158584015260081c161515604082015281520192019201919096949395966112a7565b634e487b7160e01b845260419052602483fd5b503461019757602036600319011261019757803590818352600260205260ff6007604085200154166007811015610c8357600161139c911461208d565b6113a46120c9565b8183526002602052600960408420015460ff81169081611413575b50156113cf57506103099061224e565b60649060206040519162461bcd60e51b8352820152601c60248201527f4e6f7420617070726f76656420627920626f74682070617274696573000000006044820152fd5b60ff915060081c165f6113bf565b5090346103d85760c03660031901126103d85761143c611ac9565b91611445611adf565b9160a4359067ffffffffffffffff82116103d8576020611481868661146c36878901611af5565b92909160843591606435916044359133611c1a565b604051908152f35b82346103d857806003193601126103d8576020600754604051908152f35b5090346103d8576020918260031936011261019757803580835260028452604083205490916001600160a01b03916114e29083163314612054565b8284526002855260ff600760408620015416600781101561162f576001611509911461208d565b6115116120c9565b828452600285526040842060ff600982015460081c166115eb57600601544211156115b157600284958461157995965252611568604086209160078301600560ff1982541617905560038301549083015490611bb4565b918060028301541691541690612172565b7f2babb5cd458b6d41108d6d793a75e29ca524e7caa20e2da6c994462010920a728280a260015f805160206123a68339815191525580f35b60405162461bcd60e51b81529081018590526013602482015272111958591b1a5b99481b9bdd081c185cdcd959606a1b6044820152606490fd5b60405162461bcd60e51b8152808301879052601860248201527f53656c6c657220616c726561647920636f6e6669726d656400000000000000006044820152606490fd5b634e487b7160e01b855260218252602485fd5b82346103d857806003193601126103d8576020600554604051908152f35b50346101975760203660031901126101975761167a611ac9565b611682611b57565b6001600160a01b031680156116a35781546001600160a01b03191617905580f35b60405162461bcd60e51b8152602081840152600f60248201526e24b73b30b634b21030b93134ba32b960891b6044820152606490fd5b82346103d8576116e836611a82565b919081526003602052604081209081548310156103d857606061170b8484611a9c565b5060ff600182549201546040519283528181161515602084015260081c1615156040820152f35b503461019757602036600319011261019757803590818352600260205261176660018060a01b036040852054163314612054565b818352600260205260ff60076040852001541690600782101561023f57506001611790911461208d565b808252600260205260ff600960408420016001821982541617809155827f02ed4b513b7fbf03b18378dbe28e03ae9277b86ce90866f5ffefb59d9f7544868580a260081c166117dd575080f35b6117e69061224e565b80f35b503461019757602036600319011261019757610b92604060209383358152600285522060ff60018060a01b0391828154169461189084600184015416946002840154169160038401549084015460058501546006860154918760078801541693600888015496611860600a60098b01549a01611982565b9a6040519e8f9e8f908152015260408d015260608c015260808b015260a08a015260c089015260e0880190611a23565b610100860152818116151561012086015260081c16151561014084015261018080610160850152830190611a44565b90600182811c921680156118ed575b60208310146118d957565b634e487b7160e01b5f52602260045260245ffd5b91607f16916118ce565b6060810190811067ffffffffffffffff82111761191357604052565b634e487b7160e01b5f52604160045260245ffd5b610180810190811067ffffffffffffffff82111761191357604052565b6040810190811067ffffffffffffffff82111761191357604052565b90601f8019910116810190811067ffffffffffffffff82111761191357604052565b9060405191825f825492611995846118bf565b9081845260019485811690815f14611a0057506001146119c0575b50506119be92500383611960565b565b909391505f52602090815f20935f915b8183106119e85750506119be93508201015f806119b0565b855488840185015294850194879450918301916119d0565b9150506119be94506020925060ff191682840152151560051b8201015f806119b0565b906007821015611a305752565b634e487b7160e01b5f52602160045260245ffd5b91908251928382525f5b848110611a6e575050825f602080949584010152601f8019910116010190565b602081830181015184830182015201611a4e565b6040906003190112611a98576004359060243590565b5f80fd5b8054821015611ab5575f5260205f209060011b01905f90565b634e487b7160e01b5f52603260045260245ffd5b600435906001600160a01b0382168203611a9857565b602435906001600160a01b0382168203611a9857565b9181601f84011215611a985782359167ffffffffffffffff8311611a985760208381860195010111611a9857565b906040600319830112611a9857600435916024359067ffffffffffffffff8211611a9857611b5391600401611af5565b9091565b5f546001600160a01b03163303611b6a57565b60405163118cdaa760e01b8152336004820152602490fd5b5f198114611b905760010190565b634e487b7160e01b5f52601160045260245ffd5b9190811015611ab55760051b0190565b91908201809211611b9057565b81810292918115918404141715611b9057565b92919267ffffffffffffffff82116119135760405191611bfe601f8201601f191660200184611960565b829481845281830111611a98578281602093845f960137010152565b9397966001600160a01b039091169591949390929186151580612041575b1561200b576006548310611fd55742891115611f9d576007546201518090818102918183041490151715611b9057611c709042611bb4565b8911611f6557611d0290612710611c8960055486611bc1565b049460015496611c9888611b82565b600155879b60405195611caa87611927565b60018060a01b0316998a87528b602088015260018060a01b03169788604088015287606088015260808701524260a087015260c08601525f60e08601526101008501525f6101208501525f6101408501523691611bd4565b610160820152835f52600260205260405f2060018060a01b038251166bffffffffffffffffffffffff60a01b90818354161782556001820160018060a01b0360208501511682825416179055600282019060018060a01b0360408501511690825416179055606082015160038201556080820151600482015560a0820151600582015560c08201516006820155600781019060e0830151906007821015611a305761016092600a9260ff801983541691161790556101008401516008820155611e0160098201611de56101208701511515829060ff801983541691151516179055565b610140860151815461ff00191690151560081b61ff0016179055565b0191015180519067ffffffffffffffff821161191357611e2183546118bf565b601f8111611f20575b50602090601f8311600114611e965791807fcaf993c592f602a7d225c8556e07d471f93e7c0f2609647024e59018f5a521ac969492604096945f92611e8b575b50508160011b915f199060031b1c19161790555b82519182526020820152a4565b015190505f80611e6a565b90601f19831691845f5260205f20925f5b818110611f085750926001928592604098967fcaf993c592f602a7d225c8556e07d471f93e7c0f2609647024e59018f5a521ac9a989610611ef0575b505050811b019055611e7e565b01515f1960f88460031b161c191690555f8080611ee3565b92936020600181928786015181550195019301611ea7565b835f5260205f20601f840160051c81019160208510611f5b575b601f0160051c01905b818110611f505750611e2a565b5f8155600101611f43565b9091508190611f3a565b60405162461bcd60e51b815260206004820152601060248201526f2232b0b23634b732903a37b7903330b960811b6044820152606490fd5b60405162461bcd60e51b815260206004820152601060248201526f496e76616c696420646561646c696e6560801b6044820152606490fd5b60405162461bcd60e51b815260206004820152600e60248201526d416d6f756e7420746f6f206c6f7760901b6044820152606490fd5b60405162461bcd60e51b815260206004820152600e60248201526d24b73b30b634b21039b2b63632b960911b6044820152606490fd5b506001600160a01b038216871415611c38565b1561205b57565b60405162461bcd60e51b815260206004820152600a60248201526927b7363c90313abcb2b960b11b6044820152606490fd5b1561209457565b60405162461bcd60e51b815260206004820152600d60248201526c496e76616c696420737461746560981b6044820152606490fd5b5f805160206123a683398151915260028154146120e65760029055565b604051633ee5aeb560e01b8152600490fd5b156120ff57565b60405162461bcd60e51b815260206004820152600b60248201526a27b7363c9039b2b63632b960a91b6044820152606490fd5b1561213957565b60405162461bcd60e51b8152602060048201526011602482015270496e76616c6964206d696c6573746f6e6560781b6044820152606490fd5b60405163a9059cbb60e01b5f9081526001600160a01b039384166004526024949094529260209060448180855af160015f51148116156121d1575b83604052156121bb57505050565b635274afe760e01b835216600482015260249150fd5b60018115166121e757813b15153d1516166121ad565b833d5f823e3d90fd5b5f90815260036020526040812090815491821561224857815b8381106122195750505050600190565b60ff60016122278385611a9c565b50015460081c16156122415761223c90611b82565b612209565b5050905090565b50905090565b805f5260026020527f3f324d125e471a3087ea47eb7b28f36f262807b16344d6ed0883a748c7386ced6040805f2060078101600260ff198254161790556003810154906122c960028201600460018060a01b03826122b88783809654168460018a01541690612172565b5416915f5416930192835491612172565b5482519182526020820152a2565b9190915f526002602052600860405f200154918215612373576122fb913691611bd4565b6020815191012014612342575f9060405161231581611944565b601781527f436f6e646974696f6e2068617368206d69736d61746368000000000000000000602082015290565b60019060405161235181611944565b601281527110dbdb991a5d1a5bdb881d995c9a599a595960721b602082015290565b50505060019060405161238581611944565b601081526f139bc818dbdb991a5d1a5bdb881cd95d60821b60208201529056fe9b779b17422d0df92223018b32b4d1fa46e071723d6817e2486d003becc55f00a26469706673582212206a28e33a4e86640ddf0eef890a0104adfcf8b1161b11ccb2304e42544f446de464736f6c63430008140033","linkReferences":{}},"methodIdentifiers":{"approveRelease(uint256)":"1bd2cea1","arbiter()":"fe25e00a","cancelEscrow(uint256)":"e0182436","completeMilestone(uint256,uint256)":"f326206b","confirmDelivery(uint256)":"fd84cb97","createEscrow(address,address,uint256,uint256,bytes32,string)":"3229f921","createEscrowWithMilestones(address,address,uint256[],uint256,bytes32,string)":"981a4735","escrowCounter()":"c7ceafea","escrows(uint256)":"012f52ee","feeBps()":"24a9d853","fundEscrow(uint256)":"c9c31af5","getEscrow(uint256)":"7d19e596","getEscrowCount()":"16b15135","getMilestones(uint256)":"42c549c0","hasReleaseCondition(uint256)":"7eedcd04","maxDeadlineDays()":"28e1a36c","milestones(uint256,uint256)":"1c376c63","minAmount()":"9b2cb5d8","owner()":"8da5cb5b","raiseDispute(uint256)":"a5c1674e","refund(uint256)":"278ecde1","release(uint256)":"37bdc99b","releaseMilestone(uint256,uint256)":"dbaf0910","releaseWithCondition(uint256,bytes)":"fbadf9a8","renounceOwnership()":"715018a6","resolveDispute(uint256,uint256)":"bdc84ac3","setArbiter(address)":"1c9c088a","setFeeBps(uint256)":"72c27b62","setMinAmount(uint256)":"897b0637","transferOwnership(address)":"f2fde38b","verifyCondition(uint256,bytes)":"aad9f569"},"id":40}